:020000040800F2
:1000000000000220B1290008F9250008FF2500089A
:10001000052600080B260008112600080000000035
:10002000000000000000000000000000172600088B
:10003000252600080000000033260008412600089D
:10004000012A0008012A0008012A0008012A0008E4
:10005000012A0008012A0008012A0008012A0008D4
:10006000012A0008012A0008012A0008012A0008C4
:10007000012A0008012A0008012A0008012A0008B4
:10008000012A0008012A0008012A0008012A0008A4
:10009000012A0008012A0008012A0008012A000894
:1000A000012A0008012A0008012A0008012A000884
:1000B0004D260008012A0008012A0008012A00082C
:1000C000012A0008012A0008012A0008012A000864
:1000D000012A000861260008012A0008012A0008F8
:1000E000012A0008012A0008012A0008012A000844
:1000F000012A0008012A0008012A0008012A000834
:10010000012A0008012A0008012A0008012A000823
:10011000012A0008012A0008012A0008012A000813
:10012000012A0008012A0008012A0008012A000803
:10013000012A0008012A0008012A0008012A0008F3
:10014000012A0008012A0008012A0008012A0008E3
:10015000012A0008012A0008012A0008012A0008D3
:10016000012A0008012A0008012A0008012A0008C3
:10017000012A0008012A0008012A000800000000E6
:08018000012A0008012A000811
:1001880010B5054C237833B9044B13B10448AFF3C9
:1001980000800123237010BD18000020000000001B
:1001A8000C73000808B5034B1BB103490348AFF3B0
:1001B800008008BD000000001C0000200C7300082F
:1001C800034613F8012B002AFBD1181A013870478F
:1001D80053B94AB9002908BF00281CBF4FF0FF31A6
:1001E8004FF0FF3000F06EB9ADF1080C6DE904CEA8
:1001F80000F006F8DDF804E0DDE9022304B07047FA
:100208002DE9F047089D04468C46002B40F083807A
:100218008A42174647D9B2FA82F242B1C2F12000A7
:1002280024FA00F09140974040EA010C94404FEACC
:100238001748230CBCFBF8F61FFA87FE08FB16C10B
:1002480043EA014306FB0EF1994209D9FB1806F16E
:10025800FF3080F01981994240F21681023E3B44FA
:100268005B1AA4B2B3FBF8F008FB103344EA03446A
:1002780000FB0EFEA64509D93C1900F1FF3380F0BA
:100288000581A64540F2028102383C4440EA064016
:10029800A4EB0E0400261DB1D4400023C5E9004399
:1002A8003146BDE8F08702B9FFDEB2FA82F2002AD1
:1002B80050D1CB1B4FEA174E1FFA87F80126B3FB24
:1002C800FEFC210C0EFB1C3341EA034108FB0CF336
:1002D8008B4207D979180CF1FF3002D28B4200F219
:1002E800E9808446C91AA3B2B1FBFEF00EFB1011D7
:1002F80043EA014408FB00F8A04507D93C1900F17E
:10030800FF3302D2A04500F2D9801846A4EB0804B6
:1003180040EA0C40BFE78B4209D9002D00F0B180BC
:100328000026C5E9000130463146BDE8F087B3FA3A
:1003380083F6002E4AD18B4202D3824200F2B88063
:10034800841A61EB030101208C46002DA8D0C5E971
:10035800004CA5E7C2F1200320FA03F6974001FA02
:1003680002F04FEA174ED9403043030CB1FBFEF6BA
:100378001FFA87F80EFB161143EA014306FB08F142
:10038800994204FA02F409D9FB1806F1FF3C80F0FF
:100398008D80994240F28A80023E3B445B1A81B2CA
:1003A800B3FBFEF00EFB103341EA034100FB08F3F8
:1003B8008B4207D9791800F1FF3C73D28B4271D96F
:1003C80002383944CB1A40EA064678E7C6F1200CD1
:1003D80003FA06F422FA0CF31C4320FA0CF701FA8C
:1003E80006F34FEA144E21FA0CF11F433B0CB1FB04
:1003F800FEF91FFA84F80EFB191143EA014109FBC3
:1004080008FA8A4502FA06F200FA06F308D96118D2
:1004180009F1FF3048D28A4546D9A9F10209214499
:10042800A1EB0A01BFB2B1FBFEF00EFB101147EAC7
:10043800014700FB08F8B84507D9E71900F1FF3173
:100448002ED2B8452CD90238274440EA0940A7EBF8
:100458000807A0FB02894F45C64649461AD317D05C
:100468005DB1B3EB0E0267EB010707FA0CFCF24033
:100478004CEA0202F740C5E9002700263146BDE8EC
:10048800F0872E4628460BE70646E9E61846FDE6BD
:100498004345E5D2B8EB020E69EB04010138DFE70A
:1004A8000846D2E760468DE78146B9E7664675E7B4
:1004B80030464AE7ACF1020C394413E702383C44B1
:1004C80024E700BF704700BF80B500AF01220821B4
:1004D800024802F069FE00BF80BD00BF000C024068
:1004E80080B584B000AF002208212F4802F05CFEDE
:1004F800012208212C4802F057FE0A2302222B4928
:100508002B4804F092FD0023FB604FF400437B81ED
:1005180000237B603FE07B68002B06DB7B68032BB6
:1005280003DC7B680433FB6018E07B68032B07DD82
:100538007B68072B04DC7B68C3F10703FB600DE0D5
:100548007B68072B06DD7B680B2B03DC7B68043399
:10055800FB6003E07B68C3F11703FB60134B1A8849
:100568007B8913409BB2002B05D0124AFB680021FF
:1005780022F8131009E00F4AFB6832F813300133F0
:1005880099B20C4AFB6822F813107B895B087B81BF
:100598007B6801337B607B680F2BBCDD00BF00BF2D
:1005A8001037BD4680BD00BF000C0240340000205B
:1005B800780100205C00002080B500AF1E2002F00A
:1005C800CFF903461A461C4B1A70162002F0C8F9D8
:1005D80003461A46184B5A70152002F0C1F9034613
:1005E8001A46154B9A70062002F0BAF903461A46C5
:1005F800114BDA700F2002F0B3F903461A460E4B7E
:100608001A71092002F0ACF903461A460A4B5A71CE
:10061800172002F0A5F903461A46074B9A713223B0
:100628000322D021054803F03DFA0346002B00D0F1
:10063800FEE700BF80BD00BF84000020DC00002072
:1006480080B588B004AF03460A46FB711346BB71F8
:10065800BB79184602F084F90346FB73FB799AB21A
:100668000A2302930123019307F10F030093012347
:10067800D021034802F0F6FE00BF1037BD4680BD0A
:10068800DC00002080B584B004AF0A23029307235E
:100698000193254B009301230022D021234802F027
:1006A800DBFF214B1B78184602F040F903461A4637
:1006B8001F4B1A701C4B5B78184602F037F903463B
:1006C8001A461C4B1A70184B9B78184602F02EF9E4
:1006D80003461A46184B1A70134BDB78184602F07B
:1006E80025F903461A46154B1A700F4B1B79184605
:1006F80002F01CF903461A46114B1A700A4B5B7933
:10070800184602F013F903461A460E4B1A70064BA8
:100718009B79184602F00AF903461A460A4B1A70E2
:1007280000BFBD4680BD00BF84000020DC00002063
:100738007C0000207E000020810000208000002036
:100748007F000020820000207D00002080B58EB050
:1007580000AF07F11C0300221A605A609A60DA6041
:100768001A615A619A613B4600221A605A609A607F
:10077800DA601A615A619A612F4B4FF020421A6071
:100788002D4B2E4A5A602C4B00229A602A4B00228D
:10079800DA60294B00221A61274B10225A61264B36
:1007A80000229A61244B0022DA61234B00221A624C
:1007B800214B00225A62204B4FF480529A621E4B02
:1007C8000022DA621C4B4FF480421A631A4B002253
:1007D8005A63194B00229A63174B00225A640F235D
:1007E800FB610F233B623C237B620023BB62102327
:1007F800FB6211233B6300237B6308233B600F23C9
:100808007B600923BB600023FB6010233B6111233D
:100818007B610023BB613A4607F11C031946064871
:1008280004F0E6FF0346002B01D001F0E5FD00BF10
:100838003837BD4680BD00BF8C000020040100A0F1
:1008480080B586B000AF3B1D00221A605A609A60DE
:10085800DA601A611C4B1B68002B31D11A4B01223C
:100868001A6000233B60194B9B6B184A43F0010345
:100878009363164B9B6B03F001033B603B684FF699
:1008880088737B600223BB600023FB6003233B610A
:100898000C237B613B1D19460D4802F0E9FA4CF226
:1008A800B3737B600223BB600023FB6003233B61BF
:1008B8000C237B613B1D1946064802F0D9FA00E07B
:1008C80000BF1837BD4680BD380000200038024000
:1008D80000100240000C024080B582B000AF786082
:1008E800FFF7AEFF00BF0837BD4680BD80B58CB0AE
:1008F80000AF07F11C0300221A605A609A60DA60A0
:100908001A610023BB616F4B1B6B6E4A43F01003E7
:1009180013636C4B1B6B03F01003BB61BB690023B3
:100928007B61684B1B6B674A43F004031363654B99
:100938001B6B03F004037B617B6900233B61614B04
:100948001B6B604A43F0800313635E4B1B6B03F021
:1009580080033B613B690023FB605A4B1B6B594A80
:1009680043F001031363574B1B6B03F00103FB6058
:10097800FB680023BB60534B1B6B524A43F00803D0
:100988001363504B1B6B03F00803BB60BB68002369
:100998007B604C4B1B6B4B4A43F040031363494B42
:1009A8001B6B03F040037B607B6800233B60454B77
:1009B8001B6B444A43F002031363424B1B6B03F067
:1009C80002033B603B68002270213F4802F0ECFBC9
:1009D80000224FF400513D4802F0E6FB002240217E
:1009E8003B4802F0E1FB00224FF48071394802F0E5
:1009F800DBFB00220821384802F0D6FB7023FB619C
:100A080001233B6200237B620023BB6207F11C03C6
:100A180019462D4802F02CFA4FF40053FB610123CC
:100A28003B6200237B620023BB6207F11C0319466B
:100A3800264802F01DFAC023FB6100233B62002315
:100A48007B6207F11C031946224802F011FA302391
:100A5800FB6100233B6200237B6207F11C031946FC
:100A68001A4802F005FA4023FB6101233B62002388
:100A78007B620023BB6207F11C031946144802F08D
:100A8800F7F94FF48073FB6101233B6200237B621B
:100A98000023BB6207F11C0319460E4802F0E8F96F
:100AA8000823FB6101233B6200237B620023BB62B6
:100AB80007F11C031946084802F0DAF900BF30377D
:100AC800BD4680BD003802400010024000080240C8
:100AD8000018024000000240000C024080B500AF40
:100AE800124B134A1A60114B124A5A600F4B0022DC
:100AF8009A600E4B0022DA600C4B4FF480421A6168
:100B08000A4B00225A61094B00229A61074B0022C6
:100B1800DA61064B00221A62044802F05FFB0346C2
:100B2800002B01D001F068FC00BF80BDDC00002074
:100B380000540040A086010080B58AB000AF7860FC
:100B480007F1140300221A605A609A60DA601A6189
:100B58007B681B68194A93422BD100233B61184BD1
:100B68001B6B174A43F002031363154B1B6B03F00F
:100B780002033B613B69C0237B611223BB610023F5
:100B8800FB6103233B6204237B6207F114031946CC
:100B98000C4802F06DF90023FB60094B1B6C084AF6
:100BA80043F400131364064B1B6C03F40013FB603F
:100BB800FB6800BF2837BD4680BD00BF0054004019
:100BC800003802400004024080B483B000AF0346FE
:100BD800FB80044AFB88138000BF0C37BD465DF8D4
:100BE800047B7047FEFF0F6080B483B000AF0346FC
:100BF800FB80044AFB88538000BF0C37BD465DF874
:100C0800047B7047FEFF0F6080B483B000AF064BD3
:100C18005B889BB2FB80FB889BB218460C37BD46AD
:100C28005DF8047B704700BFFEFF0F6090B583B08E
:100C380000AF0446084611461A462346FB80034681
:100C4800BB800B467B8013463B802A20FFF7BCFF06
:100C5800FB881B0A9BB21846FFF7C6FFFB88DBB26E
:100C68009BB21846FFF7C0FF7B881B0A9BB2184649
:100C7800FFF7BAFF7B88DBB29BB21846FFF7B4FFD9
:100C88002B20FFF7A1FFBB881B0A9BB21846FFF772
:100C9800ABFFBB88DBB29BB21846FFF7A5FF3B88CA
:100CA8001B0A9BB21846FFF79FFF3B88DBB29BB23B
:100CB8001846FFF799FF2C20FFF786FF00BF0C3777
:100CC800BD4690BD80B584B000AF0346FB80FB886D
:100CD8001B0A9BB2DBB23B72FB88DBB27B72154B03
:100CE8001B88013B9AB2134B5B88013B9BB20021E6
:100CF8000020FFF79BFF0023FB8111E00023BB814D
:100D080006E0FB881846FFF76FFFBB890133BB81FC
:100D1800084B5B88BA899A42F3D3FB890133FB817C
:100D2800044B1B88FA899A42E8D300BF00BF1037EA
:100D3800BD4680BD3001002090B585B000AF0446A7
:100D4800084611461A462346FB800346BB800B46DD
:100D58007B8013463B807B88013B9AB23B88013BF2
:100D68009BB2B988F888FFF761FFBB88FB8110E068
:100D7800FB88BB8106E03B8C1846FFF735FFBB8933
:100D88000133BB81BA897B889A42F4D3FB8901334A
:100D9800FB81FA893B889A42EAD300BF00BF143727
:100DA800BD4690BD80B582B000AF0346FB800B46C0
:100DB800BB8013467B80BB88FA88B988F888FFF720
:100DC80035FF7B881846FFF70FFF00BF0837BD4681
:100DD80080BD000090B587B000AF044608461146B4
:100DE8001A462346FB800346BB800B46FB7013461E
:100DF8003B8000237B75FB883B8297F82C305B088F
:100E0800FB73FB7BDB08DBB21A46FB7B03F00703B3
:100E1800DBB2002B14BF01230023DBB213449AB2C8
:100E280097F82C309BB212FB03F3BB81FB78203B75
:100E3800FB70FB7B9AB2FB8813449BB2013B9CB2CC
:100E480097F82C309AB2BB8813449BB2013B9BB2F3
:100E5800B988F8882246FFF7E9FE00237B827AE00A
:100E680097F82C300C2B28D097F82C30102B08D161
:100E7800FA787B8A3C4912010A4413441B78FB75B3
:100E88001BE097F82C30182B0BD1FA78798A374861
:100E980013465B0013441B0103440B441B78FB758A
:100EA8000BE097F82C30202B5AD1FA787B8A3049FE
:100EB80092010A4413441B78FB750023BB7544E078
:100EC80097F83030002B20D1FA7DBB7D42FA03F32E
:100ED80003F00103002B04D03B881846FFF784FE7B
:100EE80003E03B8D1846FFF77FFE7B7D01337B7562
:100EF8007B7DFA7BB3FBF2F102FB01F29B1ADBB2BA
:100F0800002B1FD100237B7522E0FA7DBB7D42FABE
:100F180003F303F00103002B05D03A88B988FB8856
:100F28001846FFF73FFFFB880133FB80FA883B8AAE
:100F3800D21AFB7B9A4205D13B8AFB80BB880133DE
:100F4800BB8005E0BB7D0133BB75BB7D072BB7D9E3
:100F58007B8A01337B827A8ABB899A4280D300E0FC
:100F680000BF1C37BD4690BDFC730008EC79000833
:100F7800BC8B000880B485B000AF03460A46FB71FD
:100F88001346BB710123FB6004E0FA79FB6802FB9E
:100F980003F3FB60BB795A1EBA71002BF5D1FB68CD
:100FA80018461437BD465DF8047B704790B589B084
:100FB80004AF0446084611461A462346FB800346FA
:100FC800BB800B467B8013467B700023BB7397F86E
:100FD80028305B087B730023FB7359E07C887A78A0
:100FE800FB7BD31ADBB2013BDBB219460A20FFF7C1
:100FF800C1FF0346B4FBF3F12A4BA3FB0123DA0834
:1010080013469B0013445B00CA1A13463B73BB7B11
:10101800002B21D1FA7B7B78013B9A421CDA3B7B7F
:10102800002B17D1FB7B9AB27B7B9BB212FB03F39D
:101038009AB2FB88134498B23A8CB9880023029379
:1010480097F828300193BB8C009313462022FFF7B2
:10105800C1FE1AE00123BB73FB7B9AB27B7B9BB278
:1010680012FB03F39AB2FB88134498B23B7B3033EC
:10107800DAB23C8CB9880023029397F828300193A0
:10108800BB8C00932346FFF7A5FEFB7B0133FB7364
:10109800FA7B7B789A42A1D300BF00BF1437BD46C4
:1010A80090BD00BFCDCCCCCC80B483B000AF03469C
:1010B800FB71FB791B09DBB203F00303DBB2002BE6
:1010C80007D00A4B4FF4A0721A80084BF0225A80BE
:1010D80006E0064BF0221A80044B4FF4A0725A80A7
:1010E80000BF0C37BD465DF8047B70473001002017
:1010F80080B500AF00224FF40051AA4802F054F81E
:101108004FF4FA7001F0ECFC01224FF40051A548AD
:1011180002F04AF84FF4FA7001F0E2FC0020FFF701
:10112800C3FFD320FFF750FDFFF76EFD03461A46B5
:101138009D4B9A80FFF768FD03461A469A4B9A80A2
:10114800FFF762FD03461A46974B9A80964B9B8899
:101158001B029AB2944B9A80FFF756FD03461A4633
:10116800914B9B8813439AB28F4B9A80CF20FFF7FD
:101178002BFD0020FFF738FDC120FFF735FD30209B
:10118800FFF732FDED20FFF71FFD6420FFF72CFD70
:101198000320FFF729FD1220FFF726FD8120FFF726
:1011A80023FDE820FFF710FD8520FFF71DFD102027
:1011B800FFF71AFD7A20FFF717FDCB20FFF704FD94
:1011C8003920FFF711FD2C20FFF70EFD0020FFF757
:1011D8000BFD3420FFF708FD0220FFF705FDF7207F
:1011E800FFF7F2FC2020FFF7FFFCEA20FFF7ECFCFA
:1011F8000020FFF7F9FC0020FFF7F6FCC020FFF7FE
:10120800E3FC1B20FFF7F0FCC120FFF7DDFC012009
:10121800FFF7EAFCC520FFF7D7FC3020FFF7E4FC16
:101228003020FFF7E1FCC720FFF7CEFCB720FFF71F
:10123800DBFC3620FFF7C8FC0820FFF7D5FC3A2076
:10124800FFF7C2FC5520FFF7CFFCB120FFF7BCFC2D
:101258000020FFF7C9FC1A20FFF7C6FCB620FFF7ED
:10126800B3FC0A20FFF7C0FCA220FFF7BDFCF22068
:10127800FFF7AAFC0020FFF7B7FC2620FFF7A4FC25
:101288000120FFF7B1FCE020FFF79EFC0F20FFF7DD
:10129800ABFC2A20FFF7A8FC2820FFF7A5FC0820B4
:1012A800FFF7A2FC0E20FFF79FFC0820FFF79CFC2D
:1012B8005420FFF799FCA920FFF796FC4320FFF77D
:1012C80093FC0A20FFF790FC0F20FFF78DFC00200D
:1012D800FFF78AFC0020FFF787FC0020FFF784FC5B
:1012E8000020FFF781FCE120FFF76EFC0020FFF7EC
:1012F8007BFC1520FFF778FC1720FFF775FC07200B
:10130800FFF772FC1120FFF76FFC0620FFF76CFC5B
:101318002B20FFF769FC5620FFF766FC3C20FFF7FF
:1013280063FC0520FFF760FC1020FFF75DFC0F2031
:10133800FFF75AFC3F20FFF757FC3F20FFF754FC0C
:101348000F20FFF751FC2B20FFF73EFC0020FFF792
:101358004BFC0020FFF748FC0120FFF745FC3F202D
:10136800FFF742FC2A20FFF72FFC0020FFF73CFC88
:101378000020FFF739FC0020FFF736FCEF20FFF7CD
:1013880033FC1120FFF720FC782001F0A9FB29206D
:10139800FFF71AFC01224FF48071044801F004FFA2
:1013A80000BF80BD0008024030010020000002405C
:1013B80090B58BB004AFBA601A460346FB810B4662
:1013C800BB811346FB80FB89BB820023FB7548E089
:1013D800FB7D002B45D1FA89264B1B88194697F8C7
:1013E8002C305B08DBB2CB1A9A423FDCBA89214B1E
:1013F8005B88194697F82C30CB1A9A4236DCBB68C2
:101408001B78802B02D90123FB752AE0BB681B7867
:101418000D2B0BD197F82C309AB2BB891344BB81A2
:10142800BB8AFB81BB680133BB6017E0BB681A78D5
:10143800FC88B989F88997F83030029397F82C30EE
:1014480001933B8D00932346FFF7C4FC97F82C309B
:101458005B08DBB29AB2FB891344FB81BB6801339A
:10146800BB60BB681B78002BB2D100E000BF1C3703
:10147800BD4690BD3001002080B58AB004AFBA6087
:101488001A460346FB810B46BB811346FB80B868AE
:10149800FEF796FE0346FB820F4B1B881A46FB8A13
:1014A800DB00D31ADA0F13445B10BB82FA89BB8ABC
:1014B800134498B2FA88B98997F82830029397F8B4
:1014C800243001933B8C00931346BA68FFF770FFF2
:1014D80000BF1837BD4680BD3001002080B500AF81
:1014E80001224021024801F05FFE00BF80BD00BF1D
:1014F8000018024080B500AF3F4B1B88DBB29AB2A0
:101508003D4B1A803D4B1B683D4AD35C1B021AB207
:10151800394B1B881BB213431BB29AB2364B1A8045
:10152800364B1B68032B47D801A252F823F000BFA3
:10153800491500086715000885150008A315000857
:101548002D4B1B8843F0B0039AB22B4B1A802A4BC1
:101558001B8823F040039AB2274B1A802DE0264BB4
:101568001B8843F0D0039AB2234B1A80224B1B8866
:1015780023F020039AB2204B1A801EE01E4B1B88D2
:1015880043F0E0039AB21C4B1A801B4B1B8823F0D4
:1015980010039AB2184B1A800FE0174B1B8843F0C0
:1015A80070039AB2144B1A80134B1B8823F08003E4
:1015B8009AB2114B1A8000E000BF104B1B68013330
:1015C8005A4203F0030302F0030258BF53420B4A86
:1015D8001360002240210B4801F0E6FD012302229E
:1015E8000549094803F0E5FB01224021054801F0BF
:1015F800DBFD00BF80BD00BF040000203C000020D0
:1016080000000020001802407801002080B584B056
:1016180004AF01F0F3F900F0C7F8FFF767F901F03C
:1016280037F800F03FFFFFF791F8FFF757FA01F09E
:1016380003F900F023F900BF4E4B1B88002BFBD0A9
:101648004C4B00221A80FEF74BFF00F061F94A4B21
:101658001B78002B04D000F0BBFD474B00221A700A
:10166800464B1B78042B00F2818001A252F823F02C
:101678008D160008BB160008DB16000801170008C5
:1016880021170008012302931023019300230093DC
:101698004FF6FF733A4A02210020FFF7EDFEFEF7EE
:1016A800F1FF00F077F900F0D1FB364B00221A70F9
:1016B8005FE00123029310230193002300934FF668
:1016C800FF73314A02210020FFF7D6FE00F0E0F94F
:1016D8004FE00123029310230193002300934FF658
:1016E800FF732A4A02210020FFF7C6FE00F02EFBF6
:1016F800244B00221A703CE001230293102301932B
:10170800002300934FF6FF73214A02210020FFF7C0
:10171800B3FE00F00BFC2CE001230293102301938D
:10172800002300934FF478431A4A02210020FFF760
:10173800A3FE194B1B780133DAB2174B1A70164BFC
:101748001B783B2B14D90D4B00221A700020FFF791
:10175800B9FA124B00221A700F4B00221A70104B64
:1017680000221A700F4B64221A8001E000BF62E762
:1017780000BF60E75400002046000020470000201A
:101788002473000848000020347300084C730008D4
:10179800587300086C7300085000002051000020A6
:1017A8004C0000200600002080B594B000AF07F17F
:1017B800200330220021184605F09CFD07F10C0398
:1017C80000221A605A609A60DA601A610023BB60CE
:1017D800284B1B6C274A43F080531364254B1B6C22
:1017E80003F08053BB60BB6800237B60224B1B68FF
:1017F800214A43F4804313601F4B1B6803F4804362
:101808007B607B6802233B620123FB6210233B63FE
:101818000223BB630023FB6308233B64A8237B6488
:101828000223BB640423FB6407F12003184602F07B
:10183800C3FD0346002B01D000F0DEFD0F23FB6043
:1018480002233B6100237B614FF4A053BB614FF43B
:10185800A053FB6107F10C030521184603F024F897
:101868000346002B01D000F0C7FD00BF5037BD462E
:1018780080BD00BF003802400070004080B500AF56
:1018880000222021114801F08FFC002240210F483E
:1018980001F08AFC002210210C4801F085FC00F0C0
:1018A800B1FDFFF71BFEFEF70FFEFFF721FC00F06E
:1018B80061FFFEF781FE322000F0AEFD0020FFF749
:1018C80001FA00F005F800BF80BD00BF001002401B
:1018D80080B500AF17210620FEF7B2FE0A210520C9
:1018E800FEF7AEFE14210420FEF7AAFE062103200F
:1018F800FEF7A6FE01210220FEF7A2FE022101202A
:10190800FEF79EFE1E210020FEF79AFE00BF80BD56
:1019180080B500AF0C4B1B88012B12D10B4B1B78E9
:1019280001335A4203F0030302F0030258BF534243
:10193800DAB2064B1A700020FFF7C4F9044B0022F4
:101948001A7000BF80BD00BF5C0000204700002067
:101958004B00002080B400AF054BDB88012B01D180
:10196800012300E000231846BD465DF8047B70475C
:101978005C00002080B400AF054BDB89012B01D14E
:10198800012300E000231846BD465DF8047B70473C
:101998005C00002080B584B004AF364B1B789AB247
:1019A80018230293002301934FF4FC63009302234E
:1019B80064214620FFF7FAFA2F4B1B789AB21823B6
:1019C8000293002301934FF4FC63009302236421E4
:1019D8006E20FFF7EBFA294B1B789AB21823029373
:1019E800002301934FF4FC630093022364219620A3
:1019F800FFF7DCFA224B1B789AB2182302930023D4
:101A080001934FF6E0730093022382211420FFF71D
:101A1800CDFA1C4B1B789AB218230293002301932A
:101A28004FF6E0730093022382214620FFF7BEFAA7
:101A3800154B1B789AB218230293002301934FF693
:101A4800E0730093022382216E20FFF7AFFA0F4B59
:101A58001B789AB218230293002301934FF6E07380
:101A68000093022382219620FFF7A0FA00BFBD460B
:101A780080BD00BF810000207E0000207C00002087
:101A8800800000207F000020820000207D000020D0
:101A980080B584B004AFA24B1B785A1CA14B83FBC2
:101AA80002139910D317C91A0B469B000B445B000D
:101AB800D11ACAB29A4B1A70FFF74CFF0346002B93
:101AC80042D0994B1B78002B11D1984B1B785A1C8C
:101AD800974B83FB02139910D317C91A0B465B0067
:101AE8000B44DB00D11ACAB2904B1A702CE08E4B13
:101AF8001B78012B12D18F4B1B785A1C8E4B83FB02
:101B0800021313445911D317C91A0B461B015B1A48
:101B18009B00D11ACAB2874B1A7015E0824B1B780A
:101B2800022B11D1854B1B785A1C834B83FB021364
:101B380013445911D317C91A0B461B015B1A9B0092
:101B4800D11ACAB27D4B1A70FFF714FF0346002B57
:101B58002AD0754B1B785A1C794B83FB0231D3175B
:101B6800C91A0B465B000B44D11ACAB26E4B1A70E5
:101B78006D4B1B78002B17D16C4B1B781946022034
:101B8800FEF75EFD6B4B1B7819460120FEF758FDEA
:101B98006A4B1B7819460020FEF752FD694B00225C
:101BA8001A700020FFF78EF85F4B1B78002B3AD194
:101BB8005B4B1B78002B18D1634B1B78002B14D17F
:101BC800FFF7E8FE594B1B789AB2182302930023BB
:101BD80001934FF4FC630093022364214620FFF72E
:101BE800E5F9594B01221A7097E04D4B1B78002BF1
:101BF80040F09380544B1B78012B40F08E80FFF708
:101C0800C9FE4A4B1B789AB218230293002301930A
:101C180000230093022364214620FFF7C7F94A4BAB
:101C280000221A7079E0404B1B78012B38D13C4BCD
:101C38001B78002B18D1444B1B78002B14D1FFF7CD
:101C4800A9FE3C4B1B789AB21823029300230193F8
:101C58004FF4FC630093022364216E20FFF7A6F97A
:101C6800394B01221A7058E02D4B1B78002B54D1A8
:101C7800354B1B78012B50D1FFF78CFE2D4B1B7871
:101C88009AB218230293002301930023009302239E
:101C980064216E20FFF78AF92B4B00221A703CE072
:101CA800214B1B78022B38D11D4B1B78002B18D1E8
:101CB800254B1B78002B14D1FFF76CFE1F4B1B78AC
:101CC8009AB218230293002301934FF4FC63009304
:101CD800022364219620FFF769F91B4B01221A7031
:101CE8001BE00F4B1B78002B17D1174B1B78012BD0
:101CF80013D1FFF74FFE114B1B789AB218230293AA
:101D08000023019300230093022364219620FFF708
:101D18004DF90D4B00221A70FFE700BFBD4680BD8C
:101D280040000020676666664800002081000020A9
:101D3800ABAAAA2A7E000020898888887C00002017
:101D480056555555470000204100002080B584B005
:101D580004AFFFF7FFFD0346002B2BD0344B1B7855
:101D6800002B11D1334B1B785A1C334B83FB0213C6
:101D78009910D317C91A0B465B000B44DB00D11A24
:101D8800CAB22C4B1A7015E0294B1B78012B11D1C4
:101D98002A4B1B785A1C2A4B83FB021313445911F4
:101DA800D317C91A0B461B015B1A9B00D11ACAB27A
:101DB800224B1A70FFF7DEFD0346002B17D01C4B91
:101DC8001B780133002B03F00103B8BF5B42DAB282
:101DD800174B1A70164B1B78002B08D1194B002291
:101DE8001A700020FEF76EFF174B01221A70114B74
:101DF8001B789AB218230293002301934FF6E073DD
:101E08000093022364214620FFF7D0F80B4B1B7880
:101E18009AB218230293002301934FF6E0730093BC
:101E2800022364216E20FFF7C1F800BFBD4680BDC4
:101E38004800002049000020ABAAAA2A4A00002036
:101E480089888888470000200800002080B582B073
:101E580002AFFEF717FC194B1A78194B1B789A42F8
:101E680024D1184B1A78184B1B789A421ED1174B5D
:101E78001B780133DAB2154B1A70144B1B78132BED
:101E880018D94FF4784300934FF4A073F02200213F
:101E98000020FEF751FF0D4B00221A700B4B1B78E8
:101EA800002B07D10020FEF70DFF03E0074B0022AF
:101EB8001A7000E000BF00BFBD4680BD8100002051
:101EC800490000207E0000204A0000205200002027
:101ED80080B500AF104B1B78022B14D0022B19DCF5
:101EE800002B02D0012B07D014E00A230D220B4946
:101EF8000B4804F090F90DE00A230C220949084820
:101F080004F089F906E00A230C220749044804F082
:101F180082F900BF00BF80BD480000208873000818
:101F28001802002098730008A873000880B584B0D0
:101F380004AF994B1B785A1C984B83FB02139910DA
:101F4800D317C91A0B469B000B445B00D11ACAB2BF
:101F5800914B1A70924B1B880133924A82FB0312F1
:101F68005111DA178A1A642101FB02F29A1A92B205
:101F78008B4B1A80FFF7FEFC0346002B2AD08A4BB6
:101F88001B785A1C894B83FB0231D317C91A0B469D
:101F98005B000B44D11ACAB2834B1A70824B1B7870
:101FA800002B17D1824B1B7819460220FEF748FBFD
:101FB800804B1B7819460120FEF742FB7E4B1B78AD
:101FC80019460020FEF73CFB7C4B00221A700020CB
:101FD800FEF778FE7A4B1B78002B04D0784B002252
:101FE8001A7000F0F5F86E4B1B88002B18D1754B52
:101FF8001B78022B0BD8FFF76BFF694B00221A8066
:10200800704B1B780133DAB26E4B1A7008E06B4BD9
:1020180004221A700020FEF755FE6B4B00221A703E
:10202800614B1B78002B3AD15B4B1B78002B18D1E6
:10203800664B1B78002B14D1FFF7ACFC5C4B1B786C
:102048009AB218230293002301934FF4FC63009380
:10205800022364214620FEF7A9FF5C4B01221A7077
:1020680097E04D4B1B78002B40F09380574B1B7823
:10207800012B40F08E80FFF78DFC4D4B1B789AB2F8
:102088001823029300230193002300930223642161
:102098004620FEF78BFF4D4B00221A7079E0424B29
:1020A8001B78012B38D13C4B1B78002B18D1474BA0
:1020B8001B78002B14D1FFF76DFC3E4B1B789AB2AE
:1020C80018230293002301934FF4FC630093022327
:1020D80064216E20FEF76AFF3C4B01221A7058E01B
:1020E8002D4B1B78002B54D1384B1B78012B50D12A
:1020F800FFF750FC2F4B1B789AB21823029300234A
:10210800019300230093022364216E20FEF74EFF03
:102118002E4B00221A703CE0234B1B78022B38D13F
:102128001D4B1B78002B18D1284B1B78002B14D182
:10213800FFF730FC204B1B789AB218230293002338
:1021480001934FF4FC630093022364219620FEF769
:102158002DFF1E4B01221A701BE00F4B1B78002B22
:1021680017D11A4B1B78012B13D1FFF713FC124B15
:102178001B789AB21823029300230193002300933B
:10218800022364219620FEF711FF104B00221A70DB
:10219800FFE700BFBD4680BD400000206766666659
:1021A800060000201F85EB51480000205655555564
:1021B800810000207E0000207C00002047000020D5
:1021C800460000204C000020500000204100002064
:1021D80080B582B000AFD8E0724B1B881A46724BAC
:1021E8009B5CFB716F4B1B885A1C704B83FB021363
:1021F8009910D317C91A0B469B000B445B00D11AE0
:102208008AB2684B1A80FB792F2B40F2B880FB7991
:10221800392B00F2B480664B1B781A46920013449F
:102228005B00DAB2FB791344DBB2303BDAB2604BC5
:102238001A70604B1B780133DAB25E4B1A705D4B33
:102248001B78022B09D05C4B1B78002B40F09D803B
:10225800574B1B78022B40F29880574B1B78002B6A
:1022680003D1534B1B78172B0FD8534B1B78012BDB
:1022780003D14F4B1B783B2B07D84F4B1B78022BB6
:1022880010D14B4B1B783B2B0CD90A230D224B4901
:102298004B4803F0C0FF464B00221A70454B002202
:1022A8001A7072E0444B1B78022B1CD0022B25DCE1
:1022B800002B02D0012B0BD020E03D4B1A78414B6C
:1022C8001A700A23092240493D4803F0A4FF15E08B
:1022D800374B1A783D4B1A700A230B223C49384871
:1022E80003F099FF0AE0324B1A783A4B1A700A2326
:1022F8000B223949324803F08EFF00BF374B0022CA
:102308001A70374B00221A80364B00221A70284B5D
:1023180000221A70274B00221A70274B1B785A1C70
:10232800314B83FB0231D317C91A0B465B000B44B0
:10233800D11ACAB2204B1A701F4B1B78002B24D11C
:10234800204B1B7819460220FEF77AF91F4B1B78A1
:1023580019460120FEF774F91E4B1B781946002018
:10236800FEF76EF9214B00221A700020FEF7AAFC36
:102378000A230E221E49124803F04DFF05E00A23E6
:102388000D220E490E4803F046FF064B1A88194BDA
:102398001B889A427FF420AF00BF00BF0837BD46B4
:1023A80080BD00BF440000206C010020676666669F
:1023B8004D0000204E00002048000020B87300089F
:1023C8001802002081000020C87300087E00002049
:1023D800D47300087C000020E07300084C00002043
:1023E800060000204F000020565555554700002094
:1023F800EC7300084200002080B400AF72B600BF42
:10240800FEE7000080B500AF024803F085FA00BF80
:1024180080BD00BFD001002080B483B000AF034668
:10242800FB80084AFB881380064B1A88064B1A80E3
:10243800064B00221A8000BF0C37BD465DF8047BAE
:10244800704700BF580000205600002054000020AC
:1024580080B582B000AF78607B681B68B3F1804FAD
:1024680016D10D4B1B88002B10D00B4B1B88013B42
:102478009AB2094B1A80084B1B88002B06D1074BD0
:1024880001221A80064B1A88034B1A80FFF732F88C
:1024980000BF0837BD4680BD56000020540000200C
:1024A8005800002080B500AF174B184A1A60164B29
:1024B8004FF482725A60144B00229A60124B002229
:1024C800DA60114B00221A610F4B00225A610E4B41
:1024D8004FF400729A610C4B0022DA610A4B002219
:1024E8001A62094B00225A62074B00229A62064B75
:1024F8000A22DA62044802F0D3FB0346002B01D01B
:10250800FFF77AFF00BF80BD78010020003001404E
:1025180080B58AB000AF786007F1140300221A6012
:102528005A609A60DA601A617B681B68194A93429C
:102538002BD100233B61184B5B6C174A43F4805343
:102548005364154B5B6C03F480533B613B69002378
:10255800FB60114B1B6B104A43F0020313630E4BD5
:102568001B6B03F00203FB60FB6838237B610223CB
:10257800BB610023FB6103233B6205237B6207F1F8
:1025880014031946054800F073FC00BF2837BD4600
:1025980080BD00BF00300140003802400004024006
:1025A80080B483B000AF00237B60104B5B6C0F4A94
:1025B80043F4804353640D4B5B6C03F480437B60AE
:1025C8007B6800233B60094B1B6C084A43F080532F
:1025D8001364064B1B6C03F080533B603B6800BFE1
:1025E8000C37BD465DF8047B704700BF00380240D9
:1025F80080B400AFFEE780B400AFFEE780B400AF60
:10260800FEE780B400AFFEE780B400AFFEE780B419
:1026180000AF00BFBD465DF8047B704780B400AFD3
:1026280000BFBD465DF8047B704780B400AF00BFB3
:10263800BD465DF8047B704780B500AF00F030FA06
:1026480000BF80BD80B500AF024803F0D5F900BFD8
:1026580080BD00BFD001002080B500AF024803F064
:102668009DFE00BF80BD00BF1802002080B400AFEF
:10267800064BD3F88830054A43F47003C2F8883013
:1026880000BFBD465DF8047B704700BF00ED00E069
:1026980080B586B000AF07F1080300221A605A60BF
:1026A8009A60DA603B4600221A605A601D4B4FF070
:1026B80080421A601B4B40F247325A60194B002285
:1026C8009A60184B6322DA60164B00221A61154B88
:1026D80000229A61134803F0CFF80346002B01D07B
:1026E800FFF78AFE4FF48053BB6007F108031946D1
:1026F8000C4803F089FA0346002B01D0FFF77CFE53
:1027080000233B6000237B603B461946054803F0E5
:10271800A5FC0346002B01D0FFF76EFE00BF18375B
:10272800BD4680BDD001002080B584B000AF786080
:102738007B681B68B3F1804F15D10023FB600C4BFD
:102748001B6C0B4A43F001031364094B1B6C03F029
:102758000103FB60FB68002200211C2000F0BFFA87
:102768001C2000F0D8FA00BF1037BD4680BD00BF5E
:102778000038024080B500AF01220349034803F046
:10278800DCFD00BF80BD00BF5A00002018020020F9
:1027980080B582B000AF78607B681B681E4A9342A0
:1027A80036D11E4B1B881A461D4B19781D4B995460
:1027B8001A4B1B885A1C1C4B83FB02139910D31706
:1027C800C91A0B469B000B445B00D11A8AB2134B03
:1027D8001A80124B1A88154B1B889A4210D1134B3A
:1027E8001B885A1C104B83FB02139910D317C91A64
:1027F8000B469B000B445B00D11A8AB20B4B1A8024
:102808000B4B01221A70012205490A4803F095FD75
:1028180000BF0837BD4680BD0010014042000020BF
:102828005A0000206C01002067666666440000209C
:10283800460000201802002080B500AF114B124A54
:102848001A60104B4FF4E1325A600E4B00229A6026
:102858000C4B0022DA600B4B00221A61094B0C2248
:102868005A61084B00229A61064B0022DA6105483A
:1028780003F084FC0346002B01D0FFF7BDFD00BF29
:1028880080BD00BF180200200010014080B58AB04A
:1028980000AF786007F1140300221A605A609A604A
:1028A800DA601A617B681B681D4A934234D10023A1
:1028B8003B611C4B5B6C1B4A43F010035364194B80
:1028C8005B6C03F010033B613B690023FB60154B15
:1028D8001B6B144A43F001031363124B1B6B03F089
:1028E8000103FB60FB684FF4C0637B610223BB619B
:1028F8000023FB6103233B6207237B6207F1140378
:102908001946094800F0B4FA00220021252000F0F9
:10291800E6F9252000F0FFF900BF2837BD4680BD45
:1029280000100140003802400000024080B483B02B
:1029380000AF0346FB71FB791B09DBB21A46920014
:1029480013445B00DAB2FB7903F00F03DBB21344E4
:10295800DBB218460C37BD465DF8047B70470000B3
:1029680080B483B000AF0346FB71FB790D4AA2FB2C
:102978000323DB08DBB21B0158B2FA79094BA3FB2E
:102988000213D9080B469B000B445B00D31ADBB239
:102998005BB203435BB2DBB218460C37BD465DF849
:1029A800047B7047CDCCCCCCDFF834D00D480E4931
:1029B8000E4A002302E0D458C4500433C4188C4291
:1029C800F9D30B4A0B4C002301E013600432A242F6
:1029D800FBD3FFF74BFE04F069FCFEF717FE7047C8
:1029E800000002200000002018000020A4A3000816
:1029F8001800002060020020FEE7000080B500AF4C
:102A08000E4B1B680D4A43F4007313600B4B1B6895
:102A18000A4A43F480631360084B1B68074A43F46F
:102A280080731360032000F04FF90F2000F008F8BE
:102A3800FFF7B6FD0023184680BD00BF003C0240EA
:102A480080B582B000AF7860124B1A68124B1B78C1
:102A580019464FF47A73B3FBF1F3B2FBF3F318465C
:102A680000F067F90346002B01D001230EE07B68D4
:102A78000F2B0AD8002279684FF0FF3000F02FF9A9
:102A8800064A7B681360002300E0012318460837D4
:102A9800BD4680BD0C00002014000020100000205E
:102AA80080B400AF064B1B781A46064B1B681344CC
:102AB800044A136000BFBD465DF8047B704700BF41
:102AC800140000205C02002080B400AF034B1B6898
:102AD8001846BD465DF8047B704700BF5C020020C5
:102AE80080B584B000AF7860FFF7EEFFB8607B6810
:102AF800FB60FB68B3F1FF3F05D00A4B1B781A4611
:102B0800FB681344FB6000BFFFF7DEFF0246BB68AB
:102B1800D31AFA689A42F7D800BF00BF1037BD46EB
:102B280080BD00BF1400002080B485B000AF78607D
:102B38007B6803F00703FB600C4BDB68BB60BA687B
:102B48004FF6FF031340BB60FB681A02BB681343D0
:102B580043F0BF6343F40033BB60044ABB68D360EF
:102B680000BF1437BD465DF8047B704700ED00E0F8
:102B780080B400AF044BDB681B0A03F00703184658
:102B8800BD465DF8047B704700ED00E080B483B07B
:102B980000AF0346FB7197F90730002B0BDBFB797D
:102BA80003F01F02074997F907305B09012000FA73
:102BB80002F241F8232000BF0C37BD465DF8047BC4
:102BC800704700BF00E100E080B483B000AF034667
:102BD8003960FB7197F90730002B0ADB3B68DAB2E2
:102BE8000C4997F907301201D2B20B4483F800233D
:102BF8000AE03B68DAB20849FB7903F00F03043BAB
:102C08001201D2B20B441A7600BF0C37BD465DF8EC
:102C1800047B704700E100E000ED00E080B489B07B
:102C280000AFF860B9607A60FB6803F00703FB61E6
:102C3800FB69C3F10703042B28BF0423BB61FB69AD
:102C48000433062B02D9FB69033B00E000237B61B8
:102C58004FF0FF32BB6902FA03F3DA43BB681A404C
:102C68007B699A404FF0FF317B6901FA03F3D9433E
:102C78007B680B40134318462437BD465DF8047B38
:102C88007047000080B582B000AF78607B68013B78
:102C9800B3F1807F01D301230FE00A4A7B68013B2F
:102CA80053600F214FF0FF30FFF78EFF054B0022D6
:102CB8009A60044B07221A60002318460837BD465D
:102CC80080BD00BF10E000E080B582B000AF786042
:102CD8007868FFF729FF00BF0837BD4680BD80B57B
:102CE80086B000AF0346B9607A60FB7300237B614E
:102CF800FFF73EFF78617A68B9687869FFF78EFF59
:102D0800024697F90F3011461846FFF75DFF00BFDE
:102D18001837BD4680BD80B582B000AF0346FB7151
:102D280097F907301846FFF731FF00BF0837BD464F
:102D380080BD80B582B000AF78607868FFF7A2FFE9
:102D4800034618460837BD4680BD80B584B000AF3D
:102D580078607B689B6DFB60FFF7B6FEB8607B68A8
:102D680093F83530DBB2022B08D07B6880225A6595
:102D78007B68002283F83420012352E07B681B68BB
:102D88001A687B681B6822F016021A607B681B6849
:102D98005A697B681B6822F080025A617B681B6C49
:102DA800002B03D17B689B6C002B07D07B681B68CA
:102DB8001A687B681B6822F008021A607B681B6827
:102DC8001A687B681B6822F001021A6013E0FFF79B
:102DD8007BFE0246BB68D31A052B0CD97B682022E0
:102DE8005A657B68032283F835207B68002283F8C4
:102DF8003420032315E07B681B681B6803F001037C
:102E0800002BE4D17B68DB6D3F229A40FB689A6017
:102E18007B68012283F835207B68002283F8342000
:102E2800002318461037BD4680BD80B483B000AF7C
:102E380078607B6893F83530DBB2022B04D07B686E
:102E480080225A6501230CE07B68052283F835202F
:102E58007B681B681A687B681B6822F001021A608D
:102E6800002318460C37BD465DF8047B7047000008
:102E780080B489B000AF7860396000237B6100239B
:102E88003B610023BB610023FB616BE10122FB690D
:102E980002FA03F37B613B681B687A6913403B6164
:102EA8003A697B699A4240F05A813B685B6803F053
:102EB8000303012B05D03B685B6803F00303022B77
:102EC80030D17B689B68BB61FB695B00032202FA17
:102ED80003F3DB43BA691340BB613B68DA68FB69FB
:102EE8005B0002FA03F3BA691343BB617B68BA69F2
:102EF8009A607B685B68BB610122FB6902FA03F395
:102F0800DB43BA691340BB613B685B681B0903F08C
:102F18000102FB6902FA03F3BA691343BB617B68D8
:102F2800BA695A603B685B6803F00303032B17D048
:102F38007B68DB68BB61FB695B00032202FA03F371
:102F4800DB43BA691340BB613B689A68FB695B0065
:102F580002FA03F3BA691343BB617B68BA69DA60A2
:102F68003B685B6803F00303022B23D1FB69DA0893
:102F78007B68083253F82230BB61FB6903F0070312
:102F88009B000F2202FA03F3DB43BA691340BB61CB
:102F98003B681A69FB6903F007039B0002FA03F315
:102FA800BA691343BB61FB69DA087B680832B969FF
:102FB80043F822107B681B68BB61FB695B00032236
:102FC80002FA03F3DB43BA691340BB613B685B68F1
:102FD80003F00302FB695B0002FA03F3BA691343C7
:102FE800BB617B68BA691A603B685B6803F440336D
:102FF800002B00F0B4800023FB60604B5B6C5F4AE1
:1030080043F4804353645D4B5B6C03F48043FB6083
:10301800FB685B4AFB699B08023352F82330BB61AB
:10302800FB6903F003039B000F2202FA03F3DB435F
:10303800BA691340BB617B68524A93422BD07B68C4
:10304800514A934225D07B68504A93421FD07B68EF
:103058004F4A934219D07B684E4A934213D07B68FB
:103068004D4A93420DD07B684C4A934207D07B6807
:103078004B4A934201D107230EE008230CE00623B4
:103088000AE0052308E0042306E0032304E0022302
:1030980002E0012300E00023FA6902F00302920033
:1030A8009340BA691343BB613549FB699B080233F6
:1030B800BA6941F823203B4B1B68BB613B69DB4382
:1030C800BA691340BB613B685B6803F48033002B2B
:1030D80003D0BA693B691343BB61324ABB691360C9
:1030E800304B5B68BB613B69DB43BA691340BB612A
:1030F8003B685B6803F40033002B03D0BA693B6973
:103108001343BB61274ABB695360264B9B68BB616D
:103118003B69DB43BA691340BB613B685B6803F4F6
:103128008013002B03D0BA693B691343BB611D4A66
:10313800BB6993601B4BDB68BB613B69DB43BA69C6
:103148001340BB613B685B6803F40013002B03D09A
:10315800BA693B691343BB61124ABB69D360FB6917
:103168000133FB61FB690F2B7FF690AE00BF00BFF8
:103178002437BD465DF8047B704700BF0038024025
:1031880000380140000002400004024000080240EC
:10319800000C0240001002400014024000180240D7
:1031A800001C0240003C014080B483B000AF78604E
:1031B8000B467B8013467B707B78002B03D07A8884
:1031C8007B689A6103E07B881A047B689A6100BF78
:1031D8000C37BD465DF8047B7047000080B584B0AD
:1031E80000AF78607B68002B01D101232BE17B685D
:1031F80093F83D30DBB2002B06D17B68002283F8C0
:103208003C207868FDF798FC7B68242283F83D20F1
:103218007B681B681A687B681B6822F001021A60C9
:103228007B681B681A687B681B6842F400421A6056
:103238007B681B681A687B681B6822F400421A6066
:1032480001F006FDF8607B685B68814A934207D805
:10325800FB68804A934294BF01230023DBB206E057
:10326800FB687D4A934294BF01230023DBB2002B05
:1032780001D00123E7E0FB68784AA2FB03239B0CFB
:10328800BB607B681B685B6823F03F017B681B6839
:10329800BA680A435A607B681B681B6A23F03F01BF
:1032A8007B685B686A4A934202D8BB68013309E0CD
:1032B800BB684FF4967202FB03F3694AA2FB03232F
:1032C8009B0901337A6812680B4313627B681B6899
:1032D800DB6923F44F4222F0FF027B685B685C499C
:1032E8008B4219D8FB68591E7B685B685B00B1FB91
:1032F800F3F3591C40F6FC730B40002B0AD0FB6813
:10330800591E7B685B685B00B1FBF3F30133C3F3C1
:103318000B0351E004234FE07B689B68002B11D11D
:10332800FB68581E7B6859680B465B000B44B0FB72
:10333800F3F30133C3F30B03002B0CBF012300236A
:10334800DBB212E0FB68581E7B6859680B469B008D
:103358000B4499000B44B0FBF3F30133C3F30B03A5
:10336800002B0CBF01230023DBB2002B01D001236B
:1033780022E07B689B68002B0ED1FB68581E7B6897
:1033880059680B465B000B44B0FBF3F30133C3F3FE
:103398000B0343F400430FE0FB68581E7B68596831
:1033A8000B469B000B4499000B44B0FBF3F301332D
:1033B800C3F30B0343F44043796809681343CB61B3
:1033C8007B681B681B6823F0C0017B68DA697B682F
:1033D8001B6A1A437B681B680A431A607B681B6870
:1033E8009B6823F4034323F0FF037A6811697A6822
:1033F800D26811437A6812680B4393607B681B6834
:10340800DB6823F0FF017B685A697B689B691A4374
:103418007B681B680A43DA607B681B681A687B68EC
:103428001B6842F001021A607B6800221A647B68FC
:10343800202283F83D207B6800221A637B680022E3
:1034480083F83E20002318461037BD4680BD00BFD4
:10345800A08601007F841E00FF083D0083DE1B4319
:10346800D34D621080B588B002AFF86008461146A7
:103478001A4603467B810B463B811346FB80FFF7C8
:1034880023FB7861FB6893F83D30DBB2202B40F0DA
:10349800D9807B690093192301226D49F86800F0EF
:1034A800ADFD0346002B01D00223CCE0FB6893F866
:1034B8003C30012B01D10223C5E0FB68012283F8CF
:1034C8003C20FB681B681B6803F00103012B07D035
:1034D800FB681B681A68FB681B6842F001021A60E7
:1034E800FB681B681A68FB681B6822F400621A6094
:1034F800FB68212283F83D20FB68402283F83E20A8
:10350800FB6800221A64FB683A6A5A62FB68BA8C44
:103518005A85FB685B8D9AB2FB681A85FB684D4A31
:10352800DA62F8883A8979897B690193BB6A0093E2
:103538000346F86800F0E4FB0346002B52D0012351
:1035480081E07A69B96AF86800F02EFE0346002B1C
:103558000DD0FB681B6C042B07D1FB681B681A682D
:10356800FB681B6842F400721A6001236BE0FB6879
:103578005B6A1A78FB681B681A61FB685B6A5A1CED
:10358800FB685A62FB681B8D013B9AB2FB681A857F
:10359800FB685B8D9BB2013B9AB2FB685A85FB685E
:1035A8001B685B6903F00403042B1BD1FB681B8DAC
:1035B800002B17D0FB685B6A1A78FB681B681A61D6
:1035C800FB685B6A5A1CFB685A62FB681B8D013BEF
:1035D8009AB2FB681A85FB685B8D9BB2013B9AB275
:1035E800FB685A85FB681B8D002BAAD17A69B96ADA
:1035F800F86800F01AFE0346002B0DD0FB681B6C20
:10360800042B07D1FB681B681A68FB681B6842F427
:1036180000721A60012316E0FB681B681A68FB68D1
:103628001B6842F400721A60FB68202283F83D2070
:10363800FB68002283F83E20FB68002283F83C20C8
:10364800002300E0022318461837BD4680BD00BF9E
:10365800020010000000FFFF80B58CB002AFF860D8
:10366800084611461A4603467B810B463B811346A2
:10367800FB80FFF729FA7862FB6893F83D30DBB2EC
:10368800202B40F008827B6A0093192301227B4992
:10369800F86800F0B3FC0346002B01D00223FBE1DD
:1036A800FB6893F83C30012B01D10223F4E1FB685D
:1036B800012283F83C20FB681B681B6803F00103A8
:1036C800012B07D0FB681B681A68FB681B6842F06F
:1036D80001021A60FB681B681A68FB681B6822F401
:1036E80000621A60FB68222283F83D20FB684022B2
:1036F80083F83E20FB6800221A64FB683A6B5A6222
:10370800FB68BA8E5A85FB685B8D9AB2FB681A858E
:10371800FB685B4ADA62F8883A8979897B6A01939F
:10372800BB6B00930346F86800F080FB0346002B50
:1037380001D00123B0E1FB681B8D002B13D10023BE
:103748003B62FB681B685B693B62FB681B689B69A3
:103758003B623B6AFB681B681A68FB681B6842F49B
:1037680000721A6084E1FB681B8D012B1BD1FB687A
:103778001B681A68FB681B6822F480621A600023C1
:10378800FB61FB681B685B69FB61FB681B689B69E5
:10379800FB61FB69FB681B681A68FB681B6842F4DD
:1037A80000721A6064E1FB681B8D022B1BD1FB6859
:1037B8001B681A68FB681B6822F480621A60FB6841
:1037C8001B681A68FB681B6842F400621A600023D1
:1037D800BB61FB681B685B69BB61FB681B689B6915
:1037E800BB61BB6944E100237B61FB681B685B69C3
:1037F8007B61FB681B689B697B617B6938E1FB68BF
:103808001B8D032B00F2F180FB681B8D012B23D14C
:103818007A6AB96BF86800F049FD0346002B01D0BD
:10382800012339E1FB681B681A69FB685B6AD2B23D
:103838001A70FB685B6A5A1CFB685A62FB681B8D2E
:10384800013B9AB2FB681A85FB685B8D9BB2013B12
:103858009AB2FB685A850BE1FB681B8D022B4ED18F
:103868007B6A0093BB6B00220649F86800F0C6FB30
:103878000346002B08D001230EE100BF0200100010
:103888000000FFFF04000100FB681B681A68FB6862
:103898001B6842F400721A60FB681B681A69FB68AF
:1038A8005B6AD2B21A70FB685B6A5A1CFB685A6280
:1038B800FB681B8D013B9AB2FB681A85FB685B8D20
:1038C8009BB2013B9AB2FB685A85FB681B681A6970
:1038D800FB685B6AD2B21A70FB685B6A5A1CFB68A9
:1038E8005A62FB681B8D013B9AB2FB681A85FB681C
:1038F8005B8D9BB2013B9AB2FB685A85B8E07B6A44
:103908000093BB6B00226649F86800F077FB03461A
:10391800002B01D00123BFE0FB681B681A68FB6815
:103928001B6822F480621A60FB681B681A69FB68CE
:103938005B6AD2B21A70FB685B6A5A1CFB685A62EF
:10394800FB681B8D013B9AB2FB681A85FB685B8D8F
:103958009BB2013B9AB2FB685A857B6A0093BB6BAA
:1039680000224F49F86800F049FB0346002B01D0BC
:10397800012391E0FB681B681A68FB681B6842F426
:1039880000721A60FB681B681A69FB685B6AD2B22E
:103998001A70FB685B6A5A1CFB685A62FB681B8DCD
:1039A800013B9AB2FB681A85FB685B8D9BB2013BB1
:1039B8009AB2FB685A85FB681B681A69FB685B6AE0
:1039C800D2B21A70FB685B6A5A1CFB685A62FB68C1
:1039D8001B8D013B9AB2FB681A85FB685B8D9BB215
:1039E800013B9AB2FB685A8542E07A6AB96BF8687B
:1039F80000F05CFC0346002B01D001234CE0FB687F
:103A08001B681A69FB685B6AD2B21A70FB685B6A4A
:103A18005A1CFB685A62FB681B8D013B9AB2FB6813
:103A28001A85FB685B8D9BB2013B9AB2FB685A858D
:103A3800FB681B685B6903F00403042B18D1FB685F
:103A48001B681A69FB685B6AD2B21A70FB685B6A0A
:103A58005A1CFB685A62FB681B8D013B9AB2FB68D3
:103A68001A85FB685B8D9BB2013B9AB2FB685A854D
:103A7800FB681B8D002B7FF4C2AEFB68202283F805
:103A88003D20FB68002283F83E20FB68002283F873
:103A98003C20002300E0022318462837BD4680BD9D
:103AA8000400010080B58AB002AFF8607A603B601C
:103AB8000B467B81FFF708F8F8610123BB61FB68BF
:103AC80093F83D30DBB2202B40F01181FB69009365
:103AD800192301228849F86800F090FA0346002B60
:103AE80001D0022304E1FB6893F83C30012B01D19B
:103AF8000223FDE0FB68012283F83C20FB681B6879
:103B08001B6803F00103012B07D0FB681B681A68C8
:103B1800FB681B6842F001021A60FB681B681A68A0
:103B2800FB681B6822F400621A60FB68242283F891
:103B38003D20FB6800221A64FB68704ADA62FB6861
:103B48001B681A68FB681B6842F480721A60FB697C
:103B580000933B6800224FF00111F86800F04EFA1C
:103B68000346002B0DD0FB681B681B6803F48073A9
:103B7800B3F5807F03D1FB684FF400721A64032306
:103B8800B6E07B89DBB21A46FB681B6802F0FE02CE
:103B98001A61FEF799FFF861FB681B685B6903F01F
:103BA8000203022B0CBF01230023DBB2FB75FB6869
:103BB8001B685B6903F48063B3F5806F0CBF012356
:103BC8000023DBB2BB7525E0FEF77EFF0246FB69EA
:103BD800D31A3A689A4202D33B68002B03D1FB6898
:103BE800A02283F83D20FB681B685B6903F0020391
:103BF800022B0CBF01230023DBB2FB75FB681B689B
:103C08005B6903F48063B3F5806F0CBF0123002365
:103C1800DBB2BB75FB6893F83D30DBB2A02B05D057
:103C2800FB7D002B02D1BB7D002BCDD0FB68202271
:103C380083F83D20FB681B685B6903F00203022BD5
:103C480029D1FB681B681A68FB681B6842F400727C
:103C58001A6000233B61FB681B685B693B61FB687A
:103C68001B689B693B613B69FB690093192301222F
:103C78002149F86800F0C2F90346002B01D001235E
:103C880036E0FB68202283F83D20FB68002283F899
:103C98003C2000232CE0FB681B681A68FB681B6843
:103CA80042F400721A60FB681B686FF480625A6104
:103CB800FB690093192301220F49F86800F09EF967
:103CC8000346002B01D0012312E0BB690133BB611D
:103CD800BA697B689A42FFF432AFFB68202283F806
:103CE8003D20FB68002283F83C20012300E00223EA
:103CF80018462037BD4680BD020010000000FFFFB7
:103D080080B588B002AFF860084611461A460346E7
:103D18007B810B463B811346FB80FB681B681A6856
:103D2800FB681B6842F480721A607B6A00933B6AE6
:103D380000224FF00111F86800F060F90346002BEB
:103D48000DD0FB681B681B6803F48073B3F5807F94
:103D580003D1FB684FF400721A6403235FE07B8988
:103D6800DBB21A46FB681B6802F0FE021A617B6A26
:103D78003A6A2D49F86800F098F90346002B01D0FB
:103D880001234CE000237B61FB681B685B697B6156
:103D9800FB681B689B697B617B697A6A396AF8688A
:103DA80000F002FA0346002B0DD0FB681B6C042BB5
:103DB80007D1FB681B681A68FB681B6842F400722D
:103DC8001A6001232BE0FB88012B05D13B89DAB26D
:103DD800FB681B681A6121E03B891B0A9BB2DAB2B7
:103DE800FB681B681A617A6A396AF86800F0DCF9BE
:103DF8000346002B0DD0FB681B6C042B07D1FB6816
:103E08001B681A68FB681B6842F400721A60012379
:103E180005E03B89DAB2FB681B681A610023184683
:103E28001837BD4680BD00BF0200010080B588B0CC
:103E380002AFF860084611461A4603467B810B46D6
:103E48003B811346FB80FB681B681A68FB681B688C
:103E580042F480621A60FB681B681A68FB681B687A
:103E680042F480721A607B6A00933B6A00224FF02A
:103E78000111F86800F0C2F80346002B0DD0FB686A
:103E88001B681B6803F48073B3F5807F03D1FB685C
:103E98004FF400721A640323AAE07B89DBB21A4646
:103EA800FB681B6802F0FE021A617B6A3A6A524993
:103EB800F86800F0FAF80346002B01D0012397E0D8
:103EC80000237B61FB681B685B697B61FB681B687F
:103ED8009B697B617B697A6A396AF86800F064F9E2
:103EE8000346002B0DD0FB681B6C042B07D1FB6825
:103EF8001B681A68FB681B6842F400721A60012389
:103F080076E0FB88012B05D13B89DAB2FB681B6898
:103F18001A6121E03B891B0A9BB2DAB2FB681B6875
:103F28001A617A6A396AF86800F03EF90346002B8C
:103F38000DD0FB681B6C042B07D1FB681B681A6843
:103F4800FB681B6842F400721A60012350E03B8949
:103F5800DAB2FB681B681A617A6A396AF86800F095
:103F680023F90346002B0DD0FB681B6C042B07D1EB
:103F7800FB681B681A68FB681B6842F400721A60C9
:103F8800012335E0FB681B681A68FB681B6842F46C
:103F980080721A607B6A00933B6A00224FF001111D
:103FA800F86800F02BF80346002B0DD0FB681B685F
:103FB8001B6803F48073B3F5807F03D1FB684FF46B
:103FC80000721A64032313E07B89DBB243F0010318
:103FD800DAB2FB681B681A617B6A3A6A0649F868B4
:103FE80000F063F80346002B01D0012300E0002312
:103FF80018461837BD4680BD0200010080B584B060
:1040080000AFF860B9603B601346FB7125E03B6880
:10401800B3F1FF3F21D0FEF757FD0246BB69D31A23
:104028003A689A4202D33B68002B16D1FB680022FB
:104038001A63FB68202283F83D20FB68002283F87E
:104048003E20FB681B6C43F02002FB681A64FB6887
:10405800002283F83C20012323E0BB681B0CDBB261
:10406800012B0DD1FB681B685B69DA43BB68134001
:104078009BB2002B0CBF01230023DBB21A460CE0D5
:10408800FB681B689B69DA43BB6813409BB2002B33
:104098000CBF01230023DBB21A46FB799A42B6D043
:1040A800002318461037BD4680BD80B584B000AFE8
:1040B800F860B9607A603B6051E0FB681B685B6937
:1040C80003F48063B3F5806F23D1FB681B681A681B
:1040D800FB681B6842F400721A60FB681B686FF487
:1040E80080625A61FB6800221A63FB68202283F809
:1040F8003D20FB68002283F83E20FB681B6C43F0E0
:104108000402FB681A64FB68002283F83C20012340
:1041180046E07B68B3F1FF3F21D0FEF7D5FC0246AD
:104128003B68D31A7A689A4202D37B68002B16D16F
:10413800FB6800221A63FB68202283F83D20FB6895
:10414800002283F83E20FB681B6C43F02002FB68CA
:104158001A64FB68002283F83C20012320E0BB6836
:104168001B0CDBB2012B0CD1FB681B685B69DA43C3
:10417800BB6813409BB2002B14BF01230023DBB2A2
:104188000BE0FB681B689B69DA43BB6813409BB272
:10419800002B14BF01230023DBB2002B8DD1002399
:1041A80018461037BD4680BD80B584B000AFF860B2
:1041B800B9607A602DE0F86800F0CEF80346002B6D
:1041C80001D001232DE0BB68B3F1FF3F21D0FEF7FA
:1041D8007BFC02467B68D31ABA689A4202D3BB6852
:1041E800002B16D1FB6800221A63FB68202283F893
:1041F8003D20FB68002283F83E20FB681B6C43F0DF
:104208002002FB681A64FB68002283F83C20012323
:1042180007E0FB681B685B6903F08003802BCAD149
:10422800002318461037BD4680BD80B584B000AF66
:10423800F860B9607A602DE0F86800F08DF8034600
:10424800002B01D001232DE0BB68B3F1FF3F21D043
:10425800FEF73AFC02467B68D31ABA689A4202D340
:10426800BB68002B16D1FB6800221A63FB6820226A
:1042780083F83D20FB68002283F83E20FB681B6C16
:1042880043F02002FB681A64FB68002283F83C2094
:10429800012307E0FB681B685B6903F00403042B38
:1042A800CAD1002318461037BD4680BD80B584B0FA
:1042B80000AFF860B9607A6042E0FB681B685B6930
:1042C80003F01003102B19D1FB681B686FF0100264
:1042D8005A61FB6800221A63FB68202283F83D209C
:1042E800FB68002283F83E20FB681A6CFB681A649E
:1042F800FB68002283F83C20012329E0FEF7E4FB59
:1043080002467B68D31ABA689A4202D3BB68002B6C
:1043180016D1FB6800221A63FB68202283F83D202F
:10432800FB68002283F83E20FB681B6C43F02002E8
:10433800FB681A64FB68002283F83C20012307E02D
:10434800FB681B685B6903F04003402BB5D1002371
:1043580018461037BD4680BD80B483B000AF786082
:104368007B681B685B6903F48063B3F5806F1BD1BE
:104378007B681B686FF480625A617B6800221A634D
:104388007B68202283F83D207B68002283F83E204A
:104398007B681B6C43F004027B681A647B6800220C
:1043A80083F83C20012300E0002318460C37BD4663
:1043B8005DF8047B7047000080B586B000AF786078
:1043C8007B68002B01D1012364E27B681B6803F042
:1043D8000103002B75D0A34B9B6803F00C03042B3F
:1043E8000CD0A04B9B6803F00C03082B12D19D4BFB
:1043F8005B6803F48003B3F5800F0BD1994B1B68FE
:1044080003F40033002B5BD07B685B68002B57D12B
:1044180001233FE27B685B68B3F5803F06D1914B8F
:104428001B68904A43F4803313601DE07B685B6827
:10443800B3F5A02F0CD18B4B1B688A4A43F4802319
:104448001360884B1B68874A43F4803313600BE082
:10445800844B1B68834A23F480331360814B1B68A9
:10446800804A23F4802313607B685B68002B13D099
:10447800FEF72AFB386108E0FEF726FB02463B6997
:10448800D31A642B01D9032304E2764B1B6803F487
:104498000033002BF0D014E0FEF716FB386108E07B
:1044A800FEF712FB02463B69D31A642B01D903239A
:1044B800F0E16C4B1B6803F40033002BF0D100E0F3
:1044C80000BF7B681B6803F00203002B63D0654BB9
:1044D8009B6803F00C03002B0BD0624B9B6803F026
:1044E8000C03082B1CD15F4B5B6803F48003002B83
:1044F80016D15C4B1B6803F00203002B05D07B68C8
:10450800DB68012B01D00123C4E1564B1B6823F063
:10451800F8027B681B69DB00524913430B603AE0E1
:104528007B68DB68002B20D04F4B01221A60FEF716
:10453800CBFA386108E0FEF7C7FA02463B69D31A9E
:10454800022B01D90323A5E1464B1B6803F00203A4
:10455800002BF0D0434B1B6823F0F8027B681B69E3
:10456800DB00404913430B6015E03F4B00221A6003
:10457800FEF7AAFA386108E0FEF7A6FA02463B6998
:10458800D31A022B01D9032384E1364B1B6803F0AD
:104598000203002BF0D17B681B6803F00803002B93
:1045A80030D07B685B69002B16D0304B01221A6033
:1045B800FEF78AFA386108E0FEF786FA02463B6998
:1045C800D31A022B01D9032364E1264B5B6F03F056
:1045D8000203002BF0D015E0244B00221A60FEF7EE
:1045E80073FA386108E0FEF76FFA02463B69D31A9E
:1045F800022B01D903234DE11A4B5B6F03F0020331
:10460800002BF0D17B681B6803F00403002B00F03B
:10461800A0800023FB75134B1B6C03F08053002B09
:104628000FD10023BB600F4B1B6C0E4A43F0805325
:1046380013640C4B1B6C03F08053BB60BB680123F5
:10464800FB750B4B1B6803F48073002B21D1084BBF
:104658001B68074A43F480731360FEF735FA386124
:1046680011E000BF0038024000004742800E474278
:1046780000700040FEF728FA02463B69D31A022B65
:1046880001D9032306E1854B1B6803F48073002BD3
:10469800F0D07B689B68012B06D1814B1B6F804A49
:1046A80043F0010313671CE07B689B68052B0CD162
:1046B8007B4B1B6F7A4A43F004031367784B1B6FDD
:1046C800774A43F0010313670BE0754B1B6F744A7D
:1046D80023F001031367724B1B6F714A23F0040325
:1046E80013677B689B68002B15D0FEF7EDF93861DE
:1046F8000AE0FEF7E9F902463B69D31A41F288322B
:10470800934201D90323C5E0654B1B6F03F00203F5
:10471800002BEED014E0FEF7D7F938610AE0FEF777
:10472800D3F902463B69D31A41F28832934201D940
:104738000323AFE05A4B1B6F03F00203002BEED1AB
:10474800FB7D012B05D1564B1B6C554A23F080533A
:1047580013647B689B69002B00F09B80504B9B681F
:1047680003F00C03082B5CD07B689B69022B41D1BA
:104778004C4B00221A60FEF7A7F9386108E0FEF7F3
:10478800A3F902463B69D31A022B01D9032381E01E
:10479800434B1B6803F00073002BF0D17B68DA6988
:1047A8007B681B6A1A437B685B6A9B011A437B68B8
:1047B8009B6A5B08013B1B041A437B68DB6A1B0688
:1047C800374913434B60374B01221A60FEF77CF9D7
:1047D800386108E0FEF778F902463B69D31A022BE4
:1047E80001D9032356E02E4B1B6803F00073002BFE
:1047F800F0D04EE02B4B00221A60FEF765F93861C5
:1048080008E0FEF761F902463B69D31A022B01D989
:1048180003233FE0224B1B6803F00073002BF0D109
:1048280037E07B689B69012B01D1012332E01C4BE7
:104838005B68FB607B689B69012B28D0FB6803F4ED
:1048480080027B68DB699A4221D1FB6803F03F0252
:104858007B681B6A9A421AD1FA6847F6C0731340FC
:104868007A68526A9201934211D1FB6803F440328C
:104878007B689B6A5B08013B1B049A4207D1FB6873
:1048880003F070627B68DB6A1B069A4201D0012341
:1048980000E0002318461837BD4680BD0070004070
:1048A800003802406000474280B584B000AF7860AD
:1048B80039607B68002B01D10123CCE0684B1B6871
:1048C80003F007033A689A420CD9654B3A68D2B2AA
:1048D8001A70634B1B6803F007033A689A4201D0C9
:1048E8000123B8E07B681B6803F00203002B20D08B
:1048F8007B681B6803F00403002B05D0594B9B68A9
:10490800584A43F4E05393607B681B6803F008033C
:10491800002B05D0534B9B68524A43F46043936085
:10492800504B9B6823F0F0027B689B684D4913430A
:104938008B607B681B6803F00103002B44D07B6805
:104948005B68012B07D1474B1B6803F40033002B2E
:1049580019D101237FE07B685B68022B03D07B6859
:104968005B68032B07D13F4B1B6803F00073002BD8
:1049780009D101236FE03B4B1B6803F00203002BB6
:1049880001D1012367E0374B9B6823F003027B6862
:104998005B68344913438B60FEF796F8F8600AE0C9
:1049A800FEF792F80246FB68D31A41F28832934226
:1049B80001D903234FE02B4B9B6803F00C027B6863
:1049C8005B689B009A42EBD1254B1B6803F00703F9
:1049D8003A689A420CD2224B3A68D2B21A70204BEB
:1049E8001B6803F007033A689A4201D0012332E0BA
:1049F8007B681B6803F00403002B08D0194B9B68E5
:104A080023F4E0527B68DB68164913438B607B68AC
:104A18001B6803F00803002B09D0124B9B6823F492
:104A280060427B681B69DB000E4913438B6000F012
:104A380021F802460B4B9B681B0903F00F030A4938
:104A4800CB5C22FA03F3094A1360094B1B6818462A
:104A5800FDF7F6FF002318461037BD4680BD00BF9E
:104A6800003C0240003802407CA300080C000020F3
:104A7800100000202DE9B04384B000AF00237B6014
:104A88000023FB6000233B600023BB60674B9B68EF
:104A980003F00C03082B0DD0082B00F2BD80002B6F
:104AA80002D0042B03D0B7E0614BBB60B7E0614B89
:104AB800BB60B4E05D4B5B6803F03F037B605B4B1E
:104AC8005B6803F48003002B4DD0584B5B689B094F
:104AD8001A464FF0000340F2FF104FF0000102EABF
:104AE800000803EA0109404649464FF000024FF02A
:104AF80000034B0143EAD063420110461946B0EB6C
:104B0800080061EB09014FF000024FF000038B0130
:104B180043EA90638201121A63EB01034FF000002D
:104B28004FF00001D90041EA5271D00002460B460D
:104B380012EB080243EB09034FF000004FF00001AD
:104B4800590241EAD251500202460B461046194614
:104B58007B681A464FF00003FBF73AFB02460B4608
:104B68001346FB604AE0314B5B689B091A464FF0DD
:104B7800000340F2FF104FF0000102EA000403EACC
:104B88000105204629464FF000024FF000034B0173
:104B980043EAD063420110461946001B61EB050148
:104BA8004FF000024FF000038B0143EA906382014B
:104BB800121A63EB01034FF000004FF00001D90017
:104BC80041EA5271D00002460B46121945EB030325
:104BD8004FF000004FF00001990241EA9251900213
:104BE80002460B46104619467B681A464FF00003EA
:104BF800FBF7EEFA02460B461346FB600B4B5B686D
:104C08001B0C03F0030301335B003B60FA683B684D
:104C1800B2FBF3F3BB6002E0054BBB6000BFBB68AF
:104C280018461037BD46BDE8B08300BF00380240C3
:104C38000024F40000127A0080B400AF034B1B6814
:104C48001846BD465DF8047B704700BF0C00002085
:104C580080B500AFFFF7F0FF0246054B9B689B0A43
:104C680003F007030349CB5C22FA03F3184680BD1F
:104C7800003802408CA3000880B500AFFFF7DCFFC6
:104C88000246054B9B685B0B03F007030349CB5CAB
:104C980022FA03F3184680BD003802408CA30008AE
:104CA80080B582B000AF78607B68002B01D101230A
:104CB8007BE07B685B6A002B08D17B685B68B3F597
:104CC800827F09D07B680022DA6105E07B680022D8
:104CD8001A617B6800225A617B6800229A627B68AD
:104CE80093F85130DBB2002B06D17B68002283F8A1
:104CF80050207868FDF70CFC7B68022283F851206D
:104D08007B681B681A687B681B6822F040021A607F
:104D18007B685B6803F482727B689B6803F40443D6
:104D28001A437B68DB6803F400631A437B681B69DA
:104D380003F002031A437B685B6903F001031A431B
:104D48007B689B6903F400731A437B68DB6903F093
:104D580038031A437B681B6A03F0800342EA0301A5
:104D68007B689B6A03F400527B681B680A431A60DD
:104D78007B689B691B0C03F004017B685B6A03F08A
:104D880010027B681B680A435A607B681B68DA69F3
:104D98007B681B6822F40062DA617B6800225A652E
:104DA8007B68012283F85120002318460837BD4646
:104DB80080BD80B588B000AFF860B9603B6013462D
:104DC800FB800023FB77FB6893F85030012B01D15F
:104DD800022326E1FB68012283F85020FDF774FEC8
:104DE800B861FB88FB82FB6893F85130DBB2012B7A
:104DF80002D00223FB770BE1BB68002B02D0FB88B3
:104E0800002B02D10123FB7702E1FB68032283F820
:104E18005120FB6800225A65FB68BA681A63FB6870
:104E2800FA889A86FB68FA88DA86FB6800229A6311
:104E3800FB6800229A87FB680022DA87FB68002259
:104E48005A64FB6800221A64FB689B68B3F5004F3C
:104E58000FD1FB681B681A68FB681B6822F04002C8
:104E68001A60FB681B681A68FB681B6842F480427A
:104E78001A60FB681B681B6803F04003402B07D0CF
:104E8800FB681B681A68FB681B6842F040021A60DE
:104E9800FB68DB68B3F5006F4BD1FB685B68002BE0
:104EA80002D0FB8A012B3ED1FB681B6B1A88FB687A
:104EB8001B68DA60FB681B6B9A1CFB681A63FB684B
:104EC800DB8E9BB2013B9AB2FB68DA862BE0FB686B
:104ED8001B689B6803F00203022B12D1FB681B6B53
:104EE8001A88FB681B68DA60FB681B6B9A1CFB68F6
:104EF8001A63FB68DB8E9BB2013B9AB2FB68DA86C9
:104F080011E0FDF7E1FD0246BB69D31A3A689A42FF
:104F180003D83B68B3F1FF3F02D13B68002B02D1B5
:104F28000323FB7774E0FB68DB8E9BB2002BCED1AA
:104F38004CE0FB685B68002B02D0FB8A012B40D158
:104F4800FB681A6BFB681B680C3312781A70FB68D5
:104F58001B6B5A1CFB681A63FB68DB8E9BB2013B18
:104F68009AB2FB68DA862CE0FB681B689B6803F042
:104F78000203022B13D1FB681A6BFB681B680C3306
:104F880012781A70FB681B6B5A1CFB681A63FB6863
:104F9800DB8E9BB2013B9AB2FB68DA8611E0FDF723
:104FA80093FD0246BB69D31A3A689A4203D83B6814
:104FB800B3F1FF3F02D13B68002B02D10323FB77FB
:104FC80026E0FB68DB8E9BB2002BCDD1BA6939682D
:104FD800F86800F0CBFB0346002B02D0FB682022C8
:104FE8005A65FB689B68002B0AD100233B61FB686C
:104FF8001B68DB683B61FB681B689B683B613B691E
:10500800FB685B6D002B02D00123FB7700E000BF3B
:10501800FB68012283F85120FB68002283F85020A6
:10502800FB7F18462037BD4680BD80B588B002AFEB
:10503800F860B9603B601346FB800023FB75FB6892
:105048005B68B3F5827F12D1FB689B68002B0ED199
:10505800FB68042283F85120FA883B6800931346C2
:10506800BA68B968F86800F0F1F80346EAE0FB6846
:1050780093F85030012B01D10223E3E0FB680122B1
:1050880083F85020FDF720FD3861FB6893F8513014
:10509800DBB2012B02D00223FB75CAE0BB68002BF0
:1050A80002D0FB88002B02D10123FB75C1E0FB680D
:1050B800042283F85120FB6800225A65FB68BA680D
:1050C8009A63FB68FA889A87FB68FA88DA87FB682C
:1050D80000221A63FB6800229A86FB680022DA869F
:1050E800FB6800221A64FB6800225A64FB689B680C
:1050F800B3F5004F0FD1FB681B681A68FB681B6883
:1051080022F040021A60FB681B681A68FB681B687B
:1051180022F480421A60FB681B681B6803F0400396
:10512800402B07D0FB681B681A68FB681B6842F0B5
:1051380040021A60FB68DB68002B62D12EE0FB6836
:105148001B689B6803F00103012B15D1FB681B68E2
:1051580003F10C02FB689B6B1278D2B21A70FB68E1
:105168009B6B5A1CFB689A63FB68DB8F9BB2013B05
:105178009AB2FB68DA8711E0FDF7A6FC02463B69A4
:10518800D31A3A689A4203D83B68B3F1FF3F02D179
:105198003B68002B02D10323FB754AE0FB68DB8FD9
:1051A8009BB2002BCBD131E0FB681B689B6803F0F6
:1051B8000103012B13D1FB681B68DA68FB689B6B42
:1051C80092B21A80FB689B6B9A1CFB689A63FB6817
:1051D800DB8F9BB2013B9AB2FB68DA8711E0FDF7DF
:1051E80073FC02463B69D31A3A689A4203D83B6873
:1051F800B3F1FF3F02D13B68002B02D10323FB75BB
:1052080017E0FB68DB8F9BB2002BCDD13A69396878
:10521800F86800F045FA0346002B02D0FB6820220C
:105228005A65FB685B6D002B02D00123FB7500E01B
:1052380000BFFB68012283F85120FB68002283F835
:105248005020FB7D18461837BD4680BD80B58CB010
:1052580000AFF860B9607A607B800123FB620023AD
:1052680087F82B30FB6893F85030012B01D10223CB
:105278008AE1FB68012283F85020FDF725FC78625B
:10528800FB6893F8513087F82330FB685B68FB6153
:105298007B887B8397F82330012B0FD0FB69B3F50C
:1052A800827F07D1FB689B68002B03D197F82330D6
:1052B800042B03D0022387F82B305BE1BB68002B5B
:1052C80005D07B68002B02D07B88002B03D10123FB
:1052D80087F82B304EE1FB6893F85130DBB2042B92
:1052E80003D0FB68052283F85120FB6800225A6529
:1052F800FB687A689A63FB687A88DA87FB687A8839
:105308009A87FB68BA681A63FB687A88DA86FB684A
:105318007A889A86FB6800221A64FB6800225A641D
:10532800FB681B681B6803F04003402B07D0FB6831
:105338001B681A68FB681B6842F040021A60FB6829
:10534800DB68B3F5006F78D1FB685B68002B02D08F
:105358007B8B012B66D1FB681B6B1A88FB681B686B
:10536800DA60FB681B6B9A1CFB681A63FB68DB8EB0
:105378009BB2013B9AB2FB68DA8653E0FB681B6874
:105388009B6803F00203022B1BD1FB68DB8E9BB2E8
:10539800002B16D0FB6A012B13D1FB681B6B1A88F4
:1053A800FB681B68DA60FB681B6B9A1CFB681A6356
:1053B800FB68DB8E9BB2013B9AB2FB68DA8600235E
:1053C800FB62FB681B689B6803F00103012B19D182
:1053D800FB68DB8F9BB2002B14D0FB681B68DA6874
:1053E800FB689B6B92B21A80FB689B6B9A1CFB68EC
:1053F8009A63FB68DB8F9BB2013B9AB2FB68DA8742
:105408000123FB62FDF760FB02467B6AD31ABA6B85
:105418009A4207D8BB6BB3F1FF3F03D0032387F849
:105428002B30A7E0FB68DB8E9BB2002BA6D1FB6874
:10543800DB8F9BB2002BA1D17CE0FB685B68002B63
:1054480002D07B8B012B6BD1FB681A6BFB681B6846
:105458000C3312781A70FB681B6B5A1CFB681A63B2
:10546800FB68DB8E9BB2013B9AB2FB68DA8657E099
:10547800FB681B689B6803F00203022B1CD1FB68C6
:10548800DB8E9BB2002B17D0FB6A012B14D1FB6873
:105498001A6BFB681B680C3312781A70FB681B6B5D
:1054A8005A1CFB681A63FB68DB8E9BB2013B9AB2FD
:1054B800FB68DA860023FB62FB681B689B6803F0C5
:1054C8000103012B19D1FB68DB8F9BB2002B14D091
:1054D800FB681B68DA68FB689B6BD2B21A70FB68C2
:1054E8009B6B5A1CFB689A63FB68DB8F9BB2013B82
:1054F8009AB2FB68DA870123FB62FDF7E5FA0246F8
:105508007B6AD31ABA6B9A4203D8BB6BB3F1FF3FDD
:1055180002D1BB6B002B03D1032387F82B3029E082
:10552800FB68DB8E9BB2002BA2D1FB68DB8F9BB2A2
:10553800002B9DD17A6AB96BF86800F017F9034619
:10554800002B06D0012387F82B30FB6820225A65F0
:1055580010E0FB689B68002B0BD100237B61FB6884
:105568001B68DB687B61FB681B689B687B617B69E8
:1055780000E000BFFB68012283F85120FB6800228D
:1055880083F8502097F82B3018463037BD4680BD39
:1055980080B588B000AFF860B9603B601346FB7116
:1055A800FDF792FA0246BB6A9B1A3A681344FB61FC
:1055B800FDF78AFAB861394B1B685B011B0DFA6964
:1055C80002FB03F37B6154E03B68B3F1FF3F50D02B
:1055D800FDF77AFA0246BB69D31AFA699A4202D9E8
:1055E800FB69002B3DD1FB681B685A68FB681B6888
:1055F80022F0E0025A60FB685B68B3F5827F11D144
:10560800FB689B68B3F5004F04D0FB689B68B3F553
:10561800806F07D1FB681B681A68FB681B6822F05B
:1056280040021A60FB689B6AB3F5005F0FD1FB6804
:105638001B681A68FB681B6822F400521A60FB6832
:105648001B681A68FB681B6842F400521A60FB6802
:10565800012283F85120FB68002283F8502003239D
:1056680017E07B69002B01D10023FB617B69013BBB
:105678007B61FB681B689A68BB681340BA689A42EA
:105688000CBF01230023DBB21A46FB799A429BD157
:10569800002318462037BD4680BD00BF0C000020FF
:1056A80080B586B002AFF860B9607A60FB685B6865
:1056B800B3F5827F11D1FB689B68B3F5004F04D026
:1056C800FB689B68B3F5806F07D1FB681B681A6895
:1056D800FB681B6822F040021A60FB685B68B3F540
:1056E800827F2AD1FB689B68B3F5806F12D07B68F4
:1056F8000093BB6800228021F868FFF749FF034642
:10570800002B2DD0FB685B6D43F02002FB685A65C7
:10571800032326E07B680093BB6800220121F86818
:10572800FFF736FF0346002B1AD0FB685B6D43F08A
:105738002002FB685A65032313E07B680093BB686B
:1057480000220121F868FFF723FF0346002B07D04A
:10575800FB685B6D43F02002FB685A65032300E099
:10576800002318461037BD4680BD000080B588B0BC
:1057780002AFF860B9607A601B4B1B681B4AA2FB3A
:1057880003235B0D4FF47A7202FB03F37B61FB6822
:105798005B68B3F5827F12D17B680093BB680022F7
:1057A8008021F868FFF7F4FE0346002B16D0FB684B
:1057B8005B6D43F02002FB685A6503230FE07B69A9
:1057C800002B0AD07B69013B7B61FB681B689B68E7
:1057D80003F08003802BF2D000E000BF00231846BE
:1057E8001837BD4680BD00BF0C000020819F5E16A3
:1057F80080B584B000AFF860B9607A60FB68002BB0
:1058080001D1012334E0FB6893F84930DBB2002B67
:1058180006D1FB68002283F84820F868FBF75CF89B
:10582800FB681A68FB6808331946104601F06EFCDD
:10583800FB681868FB689B681A46B96801F0B8FCF1
:10584800FB685868FB689A68FB681B6B796801F00D
:10585800EDFCFB681B68FA68926853F82210FB6835
:105868001B68FA68926841F0010143F8221000238E
:1058780018461037BD4680BD80B582B000AF78604D
:105888007B68002B01D1012341E07B6893F83D3010
:10589800DBB2002B06D17B68002283F83C207868B5
:1058A800FCF742FF7B68022283F83D207B681A6878
:1058B8007B6804331946104600F096FA7B6801228B
:1058C80083F846207B68012283F83E207B6801220A
:1058D80083F83F207B68012283F840207B680122FF
:1058E80083F841207B68012283F842207B680122EB
:1058F80083F843207B68012283F844207B680122D7
:1059080083F845207B68012283F83D200023184650
:105918000837BD4680BD000080B485B000AF786010
:105928007B6893F83D30DBB2012B01D001234EE0B8
:105938007B68022283F83D207B681B68DA687B68F5
:105948001B6842F00102DA607B681B68234A9342B5
:1059580022D07B681B68B3F1804F1DD07B681B6821
:105968001F4A934218D07B681B681E4A934213D083
:105978007B681B681C4A93420ED07B681B681B4AD5
:10598800934209D07B681B68194A934204D07B680C
:105998001B68184A934211D17B681B689B6803F007
:1059A8000703FB60FB68062B10D07B681B681A682E
:1059B8007B681B6842F001021A6007E07B681B687D
:1059C8001A687B681B6842F001021A6000231846B7
:1059D8001437BD465DF8047B704700BF00000140E6
:1059E8000004004000080040000C00400004014092
:1059F800004001400018004080B582B000AF7860D8
:105A08007B681B681B6903F00203022B22D17B68A9
:105A18001B68DB6803F00203022B1BD17B681B6841
:105A28006FF002021A617B6801221A777B681B6893
:105A38009B6903F00303002B03D0786800F0B5F9E5
:105A480005E0786800F0A7F9786800F0B8F97B6895
:105A580000221A777B681B681B6903F00403042B78
:105A680022D17B681B68DB6803F00403042B1BD17D
:105A78007B681B686FF004021A617B6802221A7740
:105A88007B681B689B6903F44073002B03D078681C
:105A980000F08BF905E0786800F07DF9786800F08F
:105AA8008EF97B6800221A777B681B681B6903F0F4
:105AB8000803082B22D17B681B68DB6803F0080306
:105AC800082B1BD17B681B686FF008021A617B6882
