:020000040800F2
:100000000000022011220008252000082B200008F3
:1000100031200008372000083D20000800000000C3
:100020000000000000000000000000004320000865
:1000300051200008000000005F2000086D2000082B
:100040006122000861220008612200086122000884
:100050006122000861220008612200086122000874
:100060006122000861220008612200086122000864
:100070006122000861220008612200086122000854
:100080006122000861220008612200086122000844
:100090006122000861220008612200086122000834
:1000A0006122000861220008612200086122000824
:1000B00079200008612200086122000861220008FE
:1000C0006122000861220008612200086122000804
:1000D00061220008612200086122000861220008F4
:1000E00061220008612200086122000861220008E4
:1000F00061220008612200086122000861220008D4
:1001000061220008612200086122000861220008C3
:1001100061220008612200086122000861220008B3
:1001200061220008612200086122000861220008A3
:100130006122000861220008612200086122000893
:100140006122000861220008612200086122000883
:100150006122000861220008612200086122000873
:100160006122000861220008612200086122000863
:1001700061220008612200086122000800000000DE
:08018000612200086122000861
:1001880010B5054C237833B9044B13B10448AFF3C9
:1001980000800123237010BD14000020000000001F
:1001A800905A000808B5034B1BB103490348AFF345
:1001B800008008BD0000000018000020905A0008C8
:1001C800034613F8012B002AFBD1181A013870478F
:1001D80053B94AB9002908BF00281CBF4FF0FF31A6
:1001E8004FF0FF3000F06EB9ADF1080C6DE904CEA8
:1001F80000F006F8DDF804E0DDE9022304B07047FA
:100208002DE9F047089D04468C46002B40F083807A
:100218008A42174647D9B2FA82F242B1C2F12000A7
:1002280024FA00F09140974040EA010C94404FEACC
:100238001748230CBCFBF8F61FFA87FE08FB16C10B
:1002480043EA014306FB0EF1994209D9FB1806F16E
:10025800FF3080F01981994240F21681023E3B44FA
:100268005B1AA4B2B3FBF8F008FB103344EA03446A
:1002780000FB0EFEA64509D93C1900F1FF3380F0BA
:100288000581A64540F2028102383C4440EA064016
:10029800A4EB0E0400261DB1D4400023C5E9004399
:1002A8003146BDE8F08702B9FFDEB2FA82F2002AD1
:1002B80050D1CB1B4FEA174E1FFA87F80126B3FB24
:1002C800FEFC210C0EFB1C3341EA034108FB0CF336
:1002D8008B4207D979180CF1FF3002D28B4200F219
:1002E800E9808446C91AA3B2B1FBFEF00EFB1011D7
:1002F80043EA014408FB00F8A04507D93C1900F17E
:10030800FF3302D2A04500F2D9801846A4EB0804B6
:1003180040EA0C40BFE78B4209D9002D00F0B180BC
:100328000026C5E9000130463146BDE8F087B3FA3A
:1003380083F6002E4AD18B4202D3824200F2B88063
:10034800841A61EB030101208C46002DA8D0C5E971
:10035800004CA5E7C2F1200320FA03F6974001FA02
:1003680002F04FEA174ED9403043030CB1FBFEF6BA
:100378001FFA87F80EFB161143EA014306FB08F142
:10038800994204FA02F409D9FB1806F1FF3C80F0FF
:100398008D80994240F28A80023E3B445B1A81B2CA
:1003A800B3FBFEF00EFB103341EA034100FB08F3F8
:1003B8008B4207D9791800F1FF3C73D28B4271D96F
:1003C80002383944CB1A40EA064678E7C6F1200CD1
:1003D80003FA06F422FA0CF31C4320FA0CF701FA8C
:1003E80006F34FEA144E21FA0CF11F433B0CB1FB04
:1003F800FEF91FFA84F80EFB191143EA014109FBC3
:1004080008FA8A4502FA06F200FA06F308D96118D2
:1004180009F1FF3048D28A4546D9A9F10209214499
:10042800A1EB0A01BFB2B1FBFEF00EFB101147EAC7
:10043800014700FB08F8B84507D9E71900F1FF3173
:100448002ED2B8452CD90238274440EA0940A7EBF8
:100458000807A0FB02894F45C64649461AD317D05C
:100468005DB1B3EB0E0267EB010707FA0CFCF24033
:100478004CEA0202F740C5E9002700263146BDE8EC
:10048800F0872E4628460BE70646E9E61846FDE6BD
:100498004345E5D2B8EB020E69EB04010138DFE70A
:1004A8000846D2E760468DE78146B9E7664675E7B4
:1004B80030464AE7ACF1020C394413E702383C44B1
:1004C80024E700BF704700BF80B500AF01220821B4
:1004D800024802F007FA00BF80BD00BF000C0240CE
:1004E80080B584B000AF002208212F4802F0FAF945
:1004F800012208212C4802F0F5F90A2302222B498F
:100508002B4804F01CF90023FB604FF400437B8167
:1005180000237B603FE07B68002B06DB7B68032BB6
:1005280003DC7B680433FB6018E07B68032B07DD82
:100538007B68072B04DC7B68C3F10703FB600DE0D5
:100548007B68072B06DD7B680B2B03DC7B68043399
:10055800FB6003E07B68C3F11703FB60134B1A8849
:100568007B8913409BB2002B05D0124AFB680021FF
:1005780022F8131009E00F4AFB6832F813300133F0
:1005880099B20C4AFB6822F813107B895B087B81BF
:100598007B6801337B607B680F2BBCDD00BF00BF2D
:1005A8001037BD4680BD00BF000C0240300000205F
:1005B8005C0100204C00002080B500AF012001F054
:1005C800FFFD03461A461C4B1A70022001F0F8FD85
:1005D80003461A46184B5A70012001F0F1FD0346F4
:1005E8001A46154B9A70062001F0EAFD03461A4692
:1005F800114BDA700F2001F0E3FD03461A460E4B4B
:100608001A71092001F0DCFD03461A460A4B5A719B
:10061800172001F0D5FD03461A46074B9A7132237D
:100628000322D021054802F0DBFD0346002B00D051
:10063800FEE700BF80BD00BF74000020CC00002092
:1006480080B588B004AF03460A46FB711346BB71F8
:10065800BB79184601F0B4FD0346FB73FB799AB2E7
:100668000A2302930123019307F10F030093012347
:10067800D021034802F094FA00BF1037BD4680BD70
:10068800CC00002080B584B004AF0A23029307236E
:100698000193254B009301230022D021234802F027
:1006A80079FB214B1B78184601F070FD03461A466A
:1006B8001F4B1A701C4B5B78184601F067FD034608
:1006C8001A461C4B1A70184B9B78184601F05EFDB1
:1006D80003461A46184B1A70134BDB78184601F07C
:1006E80055FD03461A46154B1A700F4B1B791846D1
:1006F80001F04CFD03461A46114B1A700A4B5B7900
:10070800184601F043FD03461A460E4B1A70064B75
:100718009B79184601F03AFD03461A460A4B1A70AF
:1007280000BFBD4680BD00BF74000020CC00002083
:100738006C0000206E000020710000207000002076
:100748006F000020720000206D00002080B58EB080
:1007580000AF07F11C0300221A605A609A60DA6041
:100768001A615A619A613B4600221A605A609A607F
:10077800DA601A615A619A612F4B4FF020421A6071
:100788002D4B2E4A5A602C4B00229A602A4B00228D
:10079800DA60294B00221A61274B10225A61264B36
:1007A80000229A61244B0022DA61234B00221A624C
:1007B800214B00225A62204B4FF480529A621E4B02
:1007C8000022DA621C4B4FF480421A631A4B002253
:1007D8005A63194B00229A63174B00225A640F235D
:1007E800FB610F233B623C237B620023BB62102327
:1007F800FB6211233B6300237B6308233B600F23C9
:100808007B600923BB600023FB6010233B6111233D
:100818007B610023BB613A4607F11C031946064871
:1008280004F070FB0346002B01D001F0FBFA00BF77
:100838003837BD4680BD00BF7C000020040100A001
:1008480080B586B000AF3B1D00221A605A609A60DE
:10085800DA601A611C4B1B68002B31D11A4B01223C
:100868001A6000233B60194B9B6B184A43F0010345
:100878009363164B9B6B03F001033B603B684FF699
:1008880088737B600223BB600023FB6003233B610A
:100898000C237B613B1D19460D4801F087FE4CF285
:1008A800B3737B600223BB600023FB6003233B61BF
:1008B8000C237B613B1D1946064801F077FE00E0DA
:1008C80000BF1837BD4680BD340000200038024004
:1008D80000100240000C024080B582B000AF786082
:1008E800FFF7AEFF00BF0837BD4680BD80B58CB0AE
:1008F80000AF07F11C0300221A605A609A60DA60A0
:100908001A610023BB616F4B1B6B6E4A43F01003E7
:1009180013636C4B1B6B03F01003BB61BB690023B3
:100928007B61684B1B6B674A43F004031363654B99
:100938001B6B03F004037B617B6900233B61614B04
:100948001B6B604A43F0800313635E4B1B6B03F021
:1009580080033B613B690023FB605A4B1B6B594A80
:1009680043F001031363574B1B6B03F00103FB6058
:10097800FB680023BB60534B1B6B524A43F00803D0
:100988001363504B1B6B03F00803BB60BB68002369
:100998007B604C4B1B6B4B4A43F040031363494B42
:1009A8001B6B03F040037B607B6800233B60454B77
:1009B8001B6B444A43F002031363424B1B6B03F067
:1009C80002033B603B68002270213F4801F08AFF28
:1009D80000224FF400513D4801F084FF00224021DD
:1009E8003B4801F07FFF00224FF48071394801F045
:1009F80079FF00220821384801F074FF7023FB6159
:100A080001233B6200237B620023BB6207F11C03C6
:100A180019462D4801F0CAFD4FF40053FB6101232C
:100A28003B6200237B620023BB6207F11C0319466B
:100A3800264801F0BBFDC023FB6100233B62002375
:100A48007B6207F11C031946224801F0AFFD3023F1
:100A5800FB6100233B6200237B6207F11C031946FC
:100A68001A4801F0A3FD4023FB6101233B620023E8
:100A78007B620023BB6207F11C031946144801F08E
:100A880095FD4FF48073FB6101233B6200237B6279
:100A98000023BB6207F11C0319460E4801F086FDCE
:100AA8000823FB6101233B6200237B620023BB62B6
:100AB80007F11C031946084801F078FD00BF3037DC
:100AC800BD4680BD003802400010024000080240C8
:100AD8000018024000000240000C024080B500AF40
:100AE800124B134A1A60114B124A5A600F4B0022DC
:100AF8009A600E4B0022DA600C4B4FF480421A6168
:100B08000A4B00225A61094B00229A61074B0022C6
:100B1800DA61064B00221A62044801F0FDFE034622
:100B2800002B01D001F07EF900BF80BDCC00002071
:100B380000540040A086010080B58AB000AF7860FC
:100B480007F1140300221A605A609A60DA601A6189
:100B58007B681B68194A93422BD100233B61184BD1
:100B68001B6B174A43F002031363154B1B6B03F00F
:100B780002033B613B69C0237B611223BB610023F5
:100B8800FB6103233B6204237B6207F114031946CC
:100B98000C4801F00BFD0023FB60094B1B6C084A55
:100BA80043F400131364064B1B6C03F40013FB603F
:100BB800FB6800BF2837BD4680BD00BF0054004019
:100BC800003802400004024080B483B000AF0346FE
:100BD800FB80044AFB88138000BF0C37BD465DF8D4
:100BE800047B7047FEFF0F6080B483B000AF0346FC
:100BF800FB80044AFB88538000BF0C37BD465DF874
:100C0800047B7047FEFF0F6080B483B000AF064BD3
:100C18005B889BB2FB80FB889BB218460C37BD46AD
:100C28005DF8047B704700BFFEFF0F6090B583B08E
:100C380000AF0446084611461A462346FB80034681
:100C4800BB800B467B8013463B802A20FFF7BCFF06
:100C5800FB881B0A9BB21846FFF7C6FFFB88DBB26E
:100C68009BB21846FFF7C0FF7B881B0A9BB2184649
:100C7800FFF7BAFF7B88DBB29BB21846FFF7B4FFD9
:100C88002B20FFF7A1FFBB881B0A9BB21846FFF772
:100C9800ABFFBB88DBB29BB21846FFF7A5FF3B88CA
:100CA8001B0A9BB21846FFF79FFF3B88DBB29BB23B
:100CB8001846FFF799FF2C20FFF786FF00BF0C3777
:100CC800BD4690BD80B584B000AF0346FB80FB886D
:100CD8001B0A9BB2DBB23B72FB88DBB27B72154B03
:100CE8001B88013B9AB2134B5B88013B9BB20021E6
:100CF8000020FFF79BFF0023FB8111E00023BB814D
:100D080006E0FB881846FFF76FFFBB890133BB81FC
:100D1800084B5B88BA899A42F3D3FB890133FB817C
:100D2800044B1B88FA899A42E8D300BF00BF1037EA
:100D3800BD4680BD2001002090B585B000AF0446B7
:100D4800084611461A462346FB800346BB800B46DD
:100D58007B8013463B807B88013B9AB23B88013BF2
:100D68009BB2B988F888FFF761FFBB88FB8110E068
:100D7800FB88BB8106E03B8C1846FFF735FFBB8933
:100D88000133BB81BA897B889A42F4D3FB8901334A
:100D9800FB81FA893B889A42EAD300BF00BF143727
:100DA800BD4690BD80B582B000AF0346FB800B46C0
:100DB800BB8013467B80BB88FA88B988F888FFF720
:100DC80035FF7B881846FFF70FFF00BF0837BD4681
:100DD80080BD000090B587B000AF044608461146B4
:100DE8001A462346FB800346BB800B46FB7013461E
:100DF8003B8000237B75FB883B8297F82C305B088F
:100E0800FB73FB7BDB08DBB21A46FB7B03F00703B3
:100E1800DBB2002B14BF01230023DBB213449AB2C8
:100E280097F82C309BB212FB03F3BB81FB78203B75
:100E3800FB70FB7B9AB2FB8813449BB2013B9CB2CC
:100E480097F82C309AB2BB8813449BB2013B9BB2F3
:100E5800B988F8882246FFF7E9FE00237B827AE00A
:100E680097F82C300C2B28D097F82C30102B08D161
:100E7800FA787B8A3C4912010A4413441B78FB75B3
:100E88001BE097F82C30182B0BD1FA78798A374861
:100E980013465B0013441B0103440B441B78FB758A
:100EA8000BE097F82C30202B5AD1FA787B8A3049FE
:100EB80092010A4413441B78FB750023BB7544E078
:100EC80097F83030002B20D1FA7DBB7D42FA03F32E
:100ED80003F00103002B04D03B881846FFF784FE7B
:100EE80003E03B8D1846FFF77FFE7B7D01337B7562
:100EF8007B7DFA7BB3FBF2F102FB01F29B1ADBB2BA
:100F0800002B1FD100237B7522E0FA7DBB7D42FABE
:100F180003F303F00103002B05D03A88B988FB8856
:100F28001846FFF73FFFFB880133FB80FA883B8AAE
:100F3800D21AFB7B9A4205D13B8AFB80BB880133DE
:100F4800BB8005E0BB7D0133BB75BB7D072BB7D9E3
:100F58007B8A01337B827A8ABB899A4280D300E0FC
:100F680000BF1C37BD4690BDDC5A0008CC600008A5
:100F78009C72000880B485B000AF03460A46FB7136
:100F88001346BB710123FB6004E0FA79FB6802FB9E
:100F980003F3FB60BB795A1EBA71002BF5D1FB68CD
:100FA80018461437BD465DF8047B704790B589B084
:100FB80004AF0446084611461A462346FB800346FA
:100FC800BB800B467B8013467B700023BB7397F86E
:100FD80028305B087B730023FB7359E07C887A78A0
:100FE800FB7BD31ADBB2013BDBB219460A20FFF7C1
:100FF800C1FF0346B4FBF3F12A4BA3FB0123DA0834
:1010080013469B0013445B00CA1A13463B73BB7B11
:10101800002B21D1FA7B7B78013B9A421CDA3B7B7F
:10102800002B17D1FB7B9AB27B7B9BB212FB03F39D
:101038009AB2FB88134498B23A8CB9880023029379
:1010480097F828300193BB8C009313462022FFF7B2
:10105800C1FE1AE00123BB73FB7B9AB27B7B9BB278
:1010680012FB03F39AB2FB88134498B23B7B3033EC
:10107800DAB23C8CB9880023029397F828300193A0
:10108800BB8C00932346FFF7A5FEFB7B0133FB7364
:10109800FA7B7B789A42A1D300BF00BF1437BD46C4
:1010A80090BD00BFCDCCCCCC80B483B000AF03469C
:1010B800FB71FB791B09DBB203F00303DBB2002BE6
:1010C80007D00A4B4FF4A0721A80084BF0225A80BE
:1010D80006E0064BF0221A80044B4FF4A0725A80A7
:1010E80000BF0C37BD465DF8047B70472001002027
:1010F80080B500AF00224FF40051AA4801F0F2FB7E
:101108004FF4FA7001F01CF901224FF40051A54880
:1011180001F0E8FB4FF4FA7001F012F90020FFF734
:10112800C3FFD320FFF750FDFFF76EFD03461A46B5
:101138009D4B9A80FFF768FD03461A469A4B9A80A2
:10114800FFF762FD03461A46974B9A80964B9B8899
:101158001B029AB2944B9A80FFF756FD03461A4633
:10116800914B9B8813439AB28F4B9A80CF20FFF7FD
:101178002BFD0020FFF738FDC120FFF735FD30209B
:10118800FFF732FDED20FFF71FFD6420FFF72CFD70
:101198000320FFF729FD1220FFF726FD8120FFF726
:1011A80023FDE820FFF710FD8520FFF71DFD102027
:1011B800FFF71AFD7A20FFF717FDCB20FFF704FD94
:1011C8003920FFF711FD2C20FFF70EFD0020FFF757
:1011D8000BFD3420FFF708FD0220FFF705FDF7207F
:1011E800FFF7F2FC2020FFF7FFFCEA20FFF7ECFCFA
:1011F8000020FFF7F9FC0020FFF7F6FCC020FFF7FE
:10120800E3FC1B20FFF7F0FCC120FFF7DDFC012009
:10121800FFF7EAFCC520FFF7D7FC3020FFF7E4FC16
:101228003020FFF7E1FCC720FFF7CEFCB720FFF71F
:10123800DBFC3620FFF7C8FC0820FFF7D5FC3A2076
:10124800FFF7C2FC5520FFF7CFFCB120FFF7BCFC2D
:101258000020FFF7C9FC1A20FFF7C6FCB620FFF7ED
:10126800B3FC0A20FFF7C0FCA220FFF7BDFCF22068
:10127800FFF7AAFC0020FFF7B7FC2620FFF7A4FC25
:101288000120FFF7B1FCE020FFF79EFC0F20FFF7DD
:10129800ABFC2A20FFF7A8FC2820FFF7A5FC0820B4
:1012A800FFF7A2FC0E20FFF79FFC0820FFF79CFC2D
:1012B8005420FFF799FCA920FFF796FC4320FFF77D
:1012C80093FC0A20FFF790FC0F20FFF78DFC00200D
:1012D800FFF78AFC0020FFF787FC0020FFF784FC5B
:1012E8000020FFF781FCE120FFF76EFC0020FFF7EC
:1012F8007BFC1520FFF778FC1720FFF775FC07200B
:10130800FFF772FC1120FFF76FFC0620FFF76CFC5B
:101318002B20FFF769FC5620FFF766FC3C20FFF7FF
:1013280063FC0520FFF760FC1020FFF75DFC0F2031
:10133800FFF75AFC3F20FFF757FC3F20FFF754FC0C
:101348000F20FFF751FC2B20FFF73EFC0020FFF792
:101358004BFC0020FFF748FC0120FFF745FC3F202D
:10136800FFF742FC2A20FFF72FFC0020FFF73CFC88
:101378000020FFF739FC0020FFF736FCEF20FFF7CD
:1013880033FC1120FFF720FC782000F0D9FF29203A
:10139800FFF71AFC01224FF48071044801F0A2FA09
:1013A80000BF80BD0008024020010020000002406C
:1013B80090B58BB004AFBA601A460346FB810B4662
:1013C800BB811346FB80FB89BB820023FB7548E089
:1013D800FB7D002B45D1FA89264B1B88194697F8C7
:1013E8002C305B08DBB2CB1A9A423FDCBA89214B1E
:1013F8005B88194697F82C30CB1A9A4236DCBB68C2
:101408001B78802B02D90123FB752AE0BB681B7867
:101418000D2B0BD197F82C309AB2BB891344BB81A2
:10142800BB8AFB81BB680133BB6017E0BB681A78D5
:10143800FC88B989F88997F83030029397F82C30EE
:1014480001933B8D00932346FFF7C4FC97F82C309B
:101458005B08DBB29AB2FB891344FB81BB6801339A
:10146800BB60BB681B78002BB2D100E000BF1C3703
:10147800BD4690BD2001002080B58AB004AFBA6097
:101488001A460346FB810B46BB811346FB80B868AE
:10149800FEF796FE0346FB820F4B1B881A46FB8A13
:1014A800DB00D31ADA0F13445B10BB82FA89BB8ABC
:1014B800134498B2FA88B98997F82830029397F8B4
:1014C800243001933B8C00931346BA68FFF770FFF2
:1014D80000BF1837BD4680BD2001002080B500AF91
:1014E80001224021024801F0FDF900BF80BD00BF84
:1014F8000018024080B500AF3F4B1B88DBB29AB2A0
:101508003D4B1A803D4B1B683D4AD35C1B021AB207
:10151800394B1B881BB213431BB29AB2364B1A8045
:10152800364B1B68032B47D801A252F823F000BFA3
:10153800491500086715000885150008A315000857
:101548002D4B1B8843F0B0039AB22B4B1A802A4BC1
:101558001B8823F040039AB2274B1A802DE0264BB4
:101568001B8843F0D0039AB2234B1A80224B1B8866
:1015780023F020039AB2204B1A801EE01E4B1B88D2
:1015880043F0E0039AB21C4B1A801B4B1B8823F0D4
:1015980010039AB2184B1A800FE0174B1B8843F0C0
:1015A80070039AB2144B1A80134B1B8823F08003E4
:1015B8009AB2114B1A8000E000BF104B1B68013330
:1015C8005A4203F0030302F0030258BF53420B4A86
:1015D8001360002240210B4801F084F90123022204
:1015E8000549094802F06FFF01224021054801F032
:1015F80079F900BF80BD00BF04000020380000203A
:1016080000000020001802405C01002080B584B072
:1016180004AF00F023FE00F06DF8FFF767F900F063
:1016280043FD00F055FCFFF791F8FFF757FA00F07B
:10163800CBF80020FFF746FB00F008F900BF274B66
:101648001B88002BFBD0254B00221A80FEF748FF91
:1016580000F0DCF8224B1B78022B2DD0022BEDDC9E
:10166800002B02D0012B17D036E001230293102360
:101678000193002300934FF6FF731A4A02210020BA
:10168800FFF7FAFEFEF7FEFF00F020F900F088FBF6
:10169800154B00221A701FE00123029310230193B7
:1016A800002300934FF6FF73104A02210020FFF732
:1016B800E3FE00F089F90FE0012302931023019360
:1016C800002300934FF6FF73094A02210020FFF719
:1016D800D3FE00F0E5FA00BFB0E700BF44000020E9
:1016E8003C000020A85A00083D000020B85A000815
:1016F800D05A000880B594B000AF07F1200330221B
:101708000021184604F0B8F907F10C0300221A600A
:101718005A609A60DA601A610023BB60284B1B6C20
:10172800274A43F080531364254B1B6C03F0805306
:10173800BB60BB6800237B60224B1B68214A43F4D3
:10174800804313601F4B1B6803F480437B607B68F6
:1017580002233B620123FB6210233B630223BB632A
:101768000023FB6308233B64A8237B640223BB6438
:101778000423FB6407F12003184602F0BBF9034673
:10178800002B01D000F04EFB0F23FB6002233B61CE
:1017980000237B614FF4A053BB614FF4A053FB615E
:1017A80007F10C030521184602F01CFC0346002B28
:1017B80001D000F037FB00BF5037BD4680BD00BFE9
:1017C800003802400070004080B500AF00222021A0
:1017D8000D4801F087F8002240210B4801F082F8FB
:1017E80000221021084801F07DF800F021FBFFF7E6
:1017F80075FEFEF769FEFFF77BFCFEF7DDFE322083
:1018080000F020FB00BF80BD0010024080B500AF93
:101818000B4B1B88012B11D10A4B1B785A1C0A4B06
:1018280083FB0231D317C91A0B465B000B44D11A4C
:10183800CAB2044B1A700020FFF744FA00BF80BDFB
:101848004C0000203C0000205655555580B500AF8F
:1018580018210620FEF7F4FE0B210520FEF7F0FE06
:1018680010210420FEF7ECFE07210320FEF7E8FE16
:101878000D210220FEF7E4FE2F210120FEF7E0FEF5
:101888001E210020FEF7DCFE00BF80BD80B400AF43
:10189800054BDB88012B01D1012300E0002318460A
:1018A800BD465DF8047B70474C00002080B400AF53
:1018B800054BDB89012B01D1012300E000231846E9
:1018C800BD465DF8047B70474C00002080B584B0AD
:1018D80004AF364B1B789AB2182302930023019366
:1018E8004FF4FC630093022364214620FFF75EFB5C
:1018F8002F4B1B789AB218230293002301934FF4BD
:10190800FC630093022364216E20FFF74FFB294BF1
:101918001B789AB218230293002301934FF4FC63B7
:101928000093022364219620FFF740FB224B1B788B
:101938009AB218230293002301934FF6E0730093A1
:10194800022382211420FFF731FB1C4B1B789AB22B
:1019580018230293002301934FF6E07300930223A8
:1019680082214620FFF722FB154B1B789AB21823D9
:101978000293002301934FF6E07300930223822120
:101988006E20FFF713FB0F4B1B789AB218230293B4
:10199800002301934FF6E0730093022382219620DF
:1019A800FFF704FB00BFBD4680BD00BF71000020EB
:1019B8006E0000206C000020700000206F000020E6
:1019C800720000206D00002080B584B004AFA74BE2
:1019D8001B785A1CA64B83FB02139910D317C91AFC
:1019E8000B469B000B445B00D11ACAB29F4B1A707E
:1019F800A04BDA88A04BA3FB0213D9080B469B0027
:101A08000B445B00D31A9BB2012B42D19B4B1B7832
:101A1800002B11D19A4B1B785A1C9A4B83FB02134B
:101A28009910D317C91A0B465B000B44DB00D11A77
:101A3800CAB2934B1A702CE0904B1B78012B12D131
:101A4800914B1B785A1C914B83FB02131344591179
:101A5800D317C91A0B461B015B1A9B00D11ACAB2CD
:101A6800894B1A7015E0854B1B78022B11D1884BD6
:101A78001B785A1C854B83FB021313445911D31747
:101A8800C91A0B461B015B1A9B00D11ACAB2804BBC
:101A98001A70FFF70BFF0346002B2AD0774B1B78F1
:101AA8005A1C7C4B83FB0231D317C91A0B465B00C7
:101AB8000B44D11ACAB2714B1A70704B1B78002BA9
:101AC80017D16F4B1B7819460220FEF7B9FD6E4BF4
:101AD8001B7819460120FEF7B3FD6D4B1B7819469C
:101AE8000020FEF7ADFD6C4B00221A700020FFF7B6
:101AF800E9F8624B1B78002B3AD15C4B1B78002B22
:101B080018D1664B1B78002B14D1FFF7DFFE5C4B16
:101B18001B789AB218230293002301934FF4FC63B5
:101B28000093022364214620FFF740FA5B4B012211
:101B38001A7097E04D4B1B78002B40F09380574B61
:101B48001B78012B40F08E80FFF7C0FE4C4B1B78B2
:101B58009AB21823029300230193002300930223CF
:101B680064214620FFF722FA4C4B00221A7079E0D4
:101B7800424B1B78012B38D13C4B1B78002B18D1DA
:101B8800464B1B78002B14D1FFF7A0FE3E4B1B7869
:101B98009AB218230293002301934FF4FC63009335
:101BA800022364216E20FFF701FA3C4B01221A70D0
:101BB80058E02E4B1B78002B54D1384B1B78012B47
:101BC80050D1FFF783FE304B1B789AB2182302934B
:101BD8000023019300230093022364216E20FFF762
:101BE800E5F92E4B00221A703CE0244B1B78022B9F
:101BF80038D11E4B1B78002B18D1284B1B78002B93
:101C080014D1FFF763FE224B1B789AB21823029374
:101C1800002301934FF4FC63009302236421962070
:101C2800FFF7C4F91D4B01221A701BE00F4B1B78FC
:101C3800002B17D1194B1B78012B13D1FFF746FE48
:101C4800134B1B789AB218230293002301930023A5
:101C58000093022364219620FFF7A8F90F4B002276
:101C68001A70FFE700BFBD4680BD00BF40000020DE
:101C7800676666664C000020CDCCCCCC3D000020C9
:101C880071000020ABAAAA2A6E00002089888888E3
:101C98006C000020565555553C000020410000209E
:101CA80080B584B004AFFFF7F1FD0346002B2BD0BD
:101CB800344B1B78002B11D1334B1B785A1C334BF8
:101CC80083FB02139910D317C91A0B465B000B4408
:101CD800DB00D11ACAB22C4B1A7015E0294B1B78BD
:101CE800012B11D12A4B1B785A1C2A4B83FB021358
:101CF80013445911D317C91A0B461B015B1A9B00D1
:101D0800D11ACAB2224B1A70FFF7D0FD0346002B36
:101D180017D01C4B1B780133002B03F00103B8BF0D
:101D28005B42DAB2174B1A70164B1B78002B08D19E
:101D3800194B00221A700020FEF7C4FF174B01222E
:101D48001A70114B1B789AB218230293002301933F
:101D58004FF6E0730093022364214620FFF726F92B
:101D68000B4B1B789AB218230293002301934FF66A
:101D7800E0730093022364216E20FFF717F900BF78
:101D8800BD4680BD3D0000203E000020ABAAAA2A27
:101D98003F000020898888883C0000200600002039
:101DA80080B582B002AFFEF76DFC194B1A78194B5B
:101DB8001B789A4224D1184B1A78184B1B789A42F0
:101DC8001ED1174B1B780133DAB2154B1A70144B1E
:101DD8001B78132B18D94FF4784300934FF4A07352
:101DE800F02200210020FEF7A7FF0D4B00221A70F9
:101DF8000B4B1B78002B07D10020FEF763FF03E095
:101E0800074B00221A7000E000BF00BFBD4680BD2E
:101E1800710000203E0000206E0000203F000020DE
:101E28004200002080B400AF72B600BFFEE7000099
:101E380080B500AF024803F0F9F800BF80BD00BFCD
:101E4800B401002080B483B000AF0346FB80084A89
:101E5800FB881380064B1A88064B1A80064B002213
:101E68001A8000BF0C37BD465DF8047B704700BF81
:101E780048000020460000204400002080B582B0C1
:101E880000AF78607B681B68B3F1804F16D10D4BAB
:101E98001B88002B10D00B4B1B88013B9AB2094BB7
:101EA8001A80084B1B88002B06D1074B01221A8089
:101EB800064B1A88034B1A80FFF71CFB00BF083734
:101EC800BD4680BD46000020440000204800002098
:101ED80080B500AF174B184A1A60164B4FF4827240
:101EE8005A60144B00229A60124B0022DA60114BA0
:101EF80000221A610F4B00225A610E4B4FF40072F8
:101F08009A610C4B0022DA610A4B00221A62094BD3
:101F180000225A62074B00229A62064B0A22DA62B2
:101F2800044802F047FA0346002B01D0FFF77AFF76
:101F380000BF80BD5C0100200030014080B58AB040
:101F480000AF786007F1140300221A605A609A60A3
:101F5800DA601A617B681B68194A93422BD1002307
:101F68003B61184B5B6C174A43F480535364154B21
:101F78005B6C03F480533B613B690023FB60114BAE
:101F88001B6B104A43F0020313630E4B1B6B03F0E9
:101F98000203FB60FB6838237B610223BB610023DB
:101FA800FB6103233B6205237B6207F11403194697
:101FB800054800F0FBFA00BF2837BD4680BD00BFCA
:101FC80000300140003802400004024080B483B071
:101FD80000AF00237B60104B5B6C0F4A43F48043D7
:101FE80053640D4B5B6C03F480437B607B68002378
:101FF8003B60094B1B6C084A43F080531364064B43
:102008001B6C03F080533B603B6800BF0C37BD4638
:102018005DF8047B704700BF0038024080B400AF11
:10202800FEE780B400AFFEE780B400AFFEE780B4FF
:1020380000AFFEE780B400AFFEE780B400AF00BF9A
:10204800BD465DF8047B704780B400AF00BFBD4655
:102058005DF8047B704780B400AF00BFBD465DF8F3
:10206800047B704780B500AF00F04AF900BF80BD1F
:1020780080B500AF024803F049F800BF80BD00BF3B
:10208800B401002080B400AF064BD3F88830054A6D
:1020980043F47003C2F8883000BFBD465DF8047B86
:1020A800704700BF00ED00E080B586B000AF07F1D3
:1020B800080300221A605A609A60DA603B460022E0
:1020C8001A605A601D4B4FF080421A601B4B40F259
:1020D80047325A60194B00229A60184B6322DA6023
:1020E800164B00221A61154B00229A61134802F020
:1020F8004DFF0346002B01D0FFF794FE4FF48053A9
:10210800BB6007F1080319460C4803F007F90346BA
:10211800002B01D0FFF786FE00233B6000237B6085
:102128003B461946054803F023FB0346002B01D024
:10213800FFF778FE00BF1837BD4680BDB401002008
:1021480080B584B000AF78607B681B68B3F1804FBE
:1021580015D10023FB600C4B1B6C0B4A43F00103A9
:102168001364094B1B6C03F00103FB60FB6800223E
:1021780000211C2000F0E3F91C2000F0FCF900BF4E
:102188001037BD4680BD00BF0038024080B483B020
:1021980000AF0346FB71FB791B09DBB21A469200BC
:1021A80013445B00DAB2FB7903F00F03DBB213448C
:1021B800DBB218460C37BD465DF8047B704700005B
:1021C80080B483B000AF0346FB71FB790D4AA2FBD4
:1021D8000323DB08DBB21B0158B2FA79094BA3FBD6
:1021E8000213D9080B469B000B445B00D31ADBB2E1
:1021F8005BB203435BB2DBB218460C37BD465DF8F1
:10220800047B7047CDCCCCCCDFF834D00D480E49D8
:102218000E4A002302E0D458C4500433C4188C4238
:10222800F9D30B4A0B4C002301E013600432A2429D
:10223800FBD3FFF727FF03F0FBFBFFF7E7F9704736
:10224800000002200000002014000020848A0008FA
:102258001400002000020020FEE7000080B500AF57
:102268000E4B1B680D4A43F4007313600B4B1B683D
:102278000A4A43F480631360084B1B68074A43F417
:1022880080731360032000F04FF90F2000F008F866
:10229800FFF79CFE0023184680BD00BF003C0240AB
:1022A80080B582B000AF7860124B1A68124B1B7869
:1022B80019464FF47A73B3FBF1F3B2FBF3F3184604
:1022C80000F067F90346002B01D001230EE07B687C
:1022D8000F2B0AD8002279684FF0FF3000F02FF951
:1022E800064A7B681360002300E00123184608377C
:1022F800BD4680BD08000020100000200C00002012
:1023080080B400AF064B1B781A46064B1B68134473
:10231800044A136000BFBD465DF8047B704700BFE8
:1023280010000020FC01002080B400AF034B1B68A4
:102338001846BD465DF8047B704700BFFC010020CD
:1023480080B584B000AF7860FFF7EEFFB8607B68B7
:10235800FB60FB68B3F1FF3F05D00A4B1B781A46B8
:10236800FB681344FB6000BFFFF7DEFF0246BB6853
:10237800D31AFA689A42F7D800BF00BF1037BD4693
:1023880080BD00BF1000002080B485B000AF786029
:102398007B6803F00703FB600C4BDB68BB60BA6823
:1023A8004FF6FF031340BB60FB681A02BB68134378
:1023B80043F0BF6343F40033BB60044ABB68D36097
:1023C80000BF1437BD465DF8047B704700ED00E0A0
:1023D80080B400AF044BDB681B0A03F00703184600
:1023E800BD465DF8047B704700ED00E080B483B023
:1023F80000AF0346FB7197F90730002B0BDBFB7925
:1024080003F01F02074997F907305B09012000FA1A
:1024180002F241F8232000BF0C37BD465DF8047B6B
:10242800704700BF00E100E080B483B000AF03460E
:102438003960FB7197F90730002B0ADB3B68DAB289
:102448000C4997F907301201D2B20B4483F80023E4
:102458000AE03B68DAB20849FB7903F00F03043B52
:102468001201D2B20B441A7600BF0C37BD465DF894
:10247800047B704700E100E000ED00E080B489B023
:1024880000AFF860B9607A60FB6803F00703FB618E
:10249800FB69C3F10703042B28BF0423BB61FB6955
:1024A8000433062B02D9FB69033B00E000237B6160
:1024B8004FF0FF32BB6902FA03F3DA43BB681A40F4
:1024C8007B699A404FF0FF317B6901FA03F3D943E6
:1024D8007B680B40134318462437BD465DF8047BE0
:1024E8007047000080B582B000AF78607B68013B20
:1024F800B3F1807F01D301230FE00A4A7B68013BD7
:1025080053600F214FF0FF30FFF78EFF054B00227D
:102518009A60044B07221A60002318460837BD4604
:1025280080BD00BF10E000E080B582B000AF7860E9
:102538007868FFF729FF00BF0837BD4680BD80B522
:1025480086B000AF0346B9607A60FB7300237B61F5
:10255800FFF73EFF78617A68B9687869FFF78EFF00
:10256800024697F90F3011461846FFF75DFF00BF86
:102578001837BD4680BD80B582B000AF0346FB71F9
:1025880097F907301846FFF731FF00BF0837BD46F7
:1025980080BD80B582B000AF78607868FFF7A2FF91
:1025A800034618460837BD4680BD000080B489B090
:1025B80000AF7860396000237B6100233B61002312
:1025C800BB610023FB616BE10122FB6902FA03F3A3
:1025D8007B613B681B687A6913403B613A697B6998
:1025E8009A4240F05A813B685B6803F00303012B71
:1025F80005D03B685B6803F00303022B30D17B688E
:102608009B68BB61FB695B00032202FA03F3DB43AF
:10261800BA691340BB613B68DA68FB695B0002FA80
:1026280003F3BA691343BB617B68BA699A607B6834
:102638005B68BB610122FB6902FA03F3DB43BA69F9
:102648001340BB613B685B681B0903F00102FB692F
:1026580002FA03F3BA691343BB617B68BA695A602B
:102668003B685B6803F00303032B17D07B68DB68C8
:10267800BB61FB695B00032202FA03F3DB43BA691F
:102688001340BB613B689A68FB695B0002FA03F37D
:10269800BA691343BB617B68BA69DA603B685B68F7
:1026A80003F00303022B23D1FB69DA087B680832A5
:1026B80053F82230BB61FB6903F007039B000F222C
:1026C80002FA03F3DB43BA691340BB613B681A693A
:1026D800FB6903F007039B0002FA03F3BA6913438B
:1026E800BB61FB69DA087B680832B96943F82210D4
:1026F8007B681B68BB61FB695B00032202FA03F37A
:10270800DB43BA691340BB613B685B6803F00302B3
:10271800FB695B0002FA03F3BA691343BB617B6888
:10272800BA691A603B685B6803F44033002B00F019
:10273800B4800023FB60604B5B6C5F4A43F48043CA
:1027480053645D4B5B6C03F48043FB60FB685B4A3E
:10275800FB699B08023352F82330BB61FB6903F025
:1027680003039B000F2202FA03F3DB43BA69134009
:10277800BB617B68524A93422BD07B68514A934293
:1027880025D07B68504A93421FD07B684F4A9342BA
:1027980019D07B684E4A934213D07B684D4A9342C6
:1027A8000DD07B684C4A934207D07B684B4A9342D2
:1027B80001D107230EE008230CE006230AE00523D5
:1027C80008E0042306E0032304E0022302E00123D7
:1027D80000E00023FA6902F0030292009340BA690C
:1027E8001343BB613549FB699B080233BA6941F859
:1027F80023203B4B1B68BB613B69DB43BA69134031
:10280800BB613B685B6803F48033002B03D0BA6973
:102818003B691343BB61324ABB691360304B5B6849
:10282800BB613B69DB43BA691340BB613B685B68CA
:1028380003F40033002B03D0BA693B691343BB612F
:10284800274ABB695360264B9B68BB613B69DB43E6
:10285800BA691340BB613B685B6803F48013002BC3
:1028680003D0BA693B691343BB611D4ABB699360D6
:102878001B4BDB68BB613B69DB43BA691340BB6137
:102888003B685B6803F40013002B03D0BA693B690B
:102898001343BB61124ABB69D360FB690133FB6117
:1028A800FB690F2B7FF690AE00BF00BF2437BD46F3
:1028B8005DF8047B704700BF0038024000380140D3
:1028C800000002400004024000080240000C0240E0
:1028D800001002400014024000180240001C024090
:1028E800003C014080B483B000AF78600B467B8029
:1028F80013467B707B78002B03D07A887B689A61BB
:1029080003E07B881A047B689A6100BF0C37BD46D8
:102918005DF8047B7047000080B584B000AF786034
:102928007B68002B01D101232BE17B6893F83D30B4
:10293800DBB2002B06D17B68002283F83C20786844
:10294800FEF7FAF87B68242283F83D207B681B6831
:102958001A687B681B6822F001021A607B681B6892
:102968001A687B681B6842F400421A607B681B681F
:102978001A687B681B6822F400421A6001F006FDA1
:10298800F8607B685B68814A934207D8FB68804A95
:10299800934294BF01230023DBB206E0FB687D4A23
:1029A800934294BF01230023DBB2002B01D0012303
:1029B800E7E0FB68784AA2FB03239B0CBB607B68BB
:1029C8001B685B6823F03F017B681B68BA680A4391
:1029D8005A607B681B681B6A23F03F017B685B6851
:1029E8006A4A934202D8BB68013309E0BB684FF4D6
:1029F800967202FB03F3694AA2FB03239B09013386
:102A08007A6812680B4313627B681B68DB6923F4DE
:102A18004F4222F0FF027B685B685C498B4219D801
:102A2800FB68591E7B685B685B00B1FBF3F3591CBC
:102A380040F6FC730B40002B0AD0FB68591E7B68DC
:102A48005B685B00B1FBF3F30133C3F30B0351E0A5
:102A580004234FE07B689B68002B11D1FB68581E4C
:102A68007B6859680B465B000B44B0FBF3F30133FA
:102A7800C3F30B03002B0CBF01230023DBB212E0CE
:102A8800FB68581E7B6859680B469B000B449900ED
:102A98000B44B0FBF3F30133C3F30B03002B0CBF60
:102AA80001230023DBB2002B01D0012322E07B6845
:102AB8009B68002B0ED1FB68581E7B6859680B4633
:102AC8005B000B44B0FBF3F30133C3F30B0343F494
:102AD80000430FE0FB68581E7B6859680B469B0053
:102AE8000B4499000B44B0FBF3F30133C3F30B031E
:102AF80043F44043796809681343CB617B681B68DA
:102B08001B6823F0C0017B68DA697B681B6A1A437B
:102B18007B681B680A431A607B681B689B6823F400
:102B2800034323F0FF037A6811697A68D268114376
:102B38007A6812680B4393607B681B68DB6823F034
:102B4800FF017B685A697B689B691A437B681B682D
:102B58000A43DA607B681B681A687B681B6842F066
:102B680001021A607B6800221A647B68202283F8BD
:102B78003D207B6800221A637B68002283F83E2090
:102B8800002318461037BD4680BD00BFA08601004F
:102B98007F841E00FF083D0083DE1B43D34D621077
:102BA80080B588B002AFF860084611461A46034659
:102BB8007B810B463B811346FB80FFF7B5FB7861B1
:102BC800FB6893F83D30DBB2202B40F0D9807B695D
:102BD8000093192301226D49F86800F0ADFD034602
:102BE800002B01D00223CCE0FB6893F83C30012B8A
:102BF80001D10223C5E0FB68012283F83C20FB6871
:102C08001B681B6803F00103012B07D0FB681B68D6
:102C18001A68FB681B6842F001021A60FB681B68AF
:102C28001A68FB681B6822F400621A60FB6821229C
:102C380083F83D20FB68402283F83E20FB68002291
:102C48001A64FB683A6A5A62FB68BA8C5A85FB6850
:102C58005B8D9AB2FB681A85FB684D4ADA62F88880
:102C68003A8979897B690193BB6A00930346F868BE
:102C780000F0E4FB0346002B52D0012381E07A697F
:102C8800B96AF86800F02EFE0346002B0DD0FB68E9
:102C98001B6C042B07D1FB681B681A68FB681B6850
:102CA80042F400721A6001236BE0FB685B6A1A78D1
:102CB800FB681B681A61FB685B6A5A1CFB685A62EE
:102CC800FB681B8D013B9AB2FB681A85FB685B8D1C
:102CD8009BB2013B9AB2FB685A85FB681B685B692B
:102CE80003F00403042B1BD1FB681B8D002B17D0AA
:102CF800FB685B6A1A78FB681B681A61FB685B6A89
:102D08005A1CFB685A62FB681B8D013B9AB2FB6830
:102D18001A85FB685B8D9BB2013B9AB2FB685A85AA
:102D2800FB681B8D002BAAD17A69B96AF86800F094
:102D38001AFE0346002B0DD0FB681B6C042B07D131
:102D4800FB681B681A68FB681B6842F400721A600B
:102D5800012316E0FB681B681A68FB681B6842F4CD
:102D680000721A60FB68202283F83D20FB6800226D
:102D780083F83E20FB68002283F83C20002300E013
:102D8800022318461837BD4680BD00BF0200100058
:102D98000000FFFF80B58CB002AFF860084611460E
:102DA8001A4603467B810B463B811346FB80FFF79F
:102DB800BBFA7862FB6893F83D30DBB2202B40F019
:102DC80008827B6A0093192301227B49F86800F086
:102DD800B3FC0346002B01D00223FBE1FB6893F808
:102DE8003C30012B01D10223F4E1FB68012283F876
:102DF8003C20FB681B681B6803F00103012B07D00C
:102E0800FB681B681A68FB681B6842F001021A60BD
:102E1800FB681B681A68FB681B6822F400621A606A
:102E2800FB68222283F83D20FB68402283F83E207D
:102E3800FB6800221A64FB683A6B5A62FB68BA8E18
:102E48005A85FB685B8D9AB2FB681A85FB685B4AFA
:102E5800DA62F8883A8979897B6A0193BB6B0093B7
:102E68000346F86800F080FB0346002B01D00123DD
:102E7800B0E1FB681B8D002B13D100233B62FB687C
:102E88001B685B693B62FB681B689B693B623B6A2A
:102E9800FB681B681A68FB681B6842F400721A60BA
:102EA80084E1FB681B8D012B1BD1FB681B681A682A
:102EB800FB681B6822F480621A600023FB61FB68D0
:102EC8001B685B69FB61FB681B689B69FB61FB69AD
:102ED800FB681B681A68FB681B6842F400721A607A
:102EE80064E1FB681B8D022B1BD1FB681B681A6809
:102EF800FB681B6822F480621A60FB681B681A680A
:102F0800FB681B6842F400621A600023BB61FB681F
:102F18001B685B69BB61FB681B689B69BB61BB691C
:102F280044E100237B61FB681B685B697B61FB688C
:102F38001B689B697B617B6938E1FB681B8D032BF0
:102F480000F2F180FB681B8D012B23D17A6AB96BE3
:102F5800F86800F049FD0346002B01D0012339E150
:102F6800FB681B681A69FB685B6AD2B21A70FB6857
:102F78005B6A5A1CFB685A62FB681B8D013B9AB25C
:102F8800FB681A85FB685B8D9BB2013B9AB2FB68B4
:102F98005A850BE1FB681B8D022B4ED17B6A00938F
:102FA800BB6B00220649F86800F0C6FB0346002BFD
:102FB80008D001230EE100BF020010000000FFFF4F
:102FC80004000100FB681B681A68FB681B6842F470
:102FD80000721A60FB681B681A69FB685B6AD2B2E8
:102FE8001A70FB685B6A5A1CFB685A62FB681B8D87
:102FF800013B9AB2FB681A85FB685B8D9BB2013B6B
:103008009AB2FB685A85FB681B681A69FB685B6A99
:10301800D2B21A70FB685B6A5A1CFB685A62FB687A
:103028001B8D013B9AB2FB681A85FB685B8D9BB2CE
:10303800013B9AB2FB685A85B8E07B6A0093BB6B88
:1030480000226649F86800F077FB0346002B01D0A0
:103058000123BFE0FB681B681A68FB681B6822F441
:1030680080621A60FB681B681A69FB685B6AD2B2E7
:103078001A70FB685B6A5A1CFB685A62FB681B8DF6
:10308800013B9AB2FB681A85FB685B8D9BB2013BDA
:103098009AB2FB685A857B6A0093BB6B00224F4942
:1030A800F86800F049FB0346002B01D0012391E0AA
:1030B800FB681B681A68FB681B6842F400721A6098
:1030C800FB681B681A69FB685B6AD2B21A70FB68F6
:1030D8005B6A5A1CFB685A62FB681B8D013B9AB2FB
:1030E800FB681A85FB685B8D9BB2013B9AB2FB6853
:1030F8005A85FB681B681A69FB685B6AD2B21A704A
:10310800FB685B6A5A1CFB685A62FB681B8D013BB3
:103118009AB2FB681A85FB685B8D9BB2013B9AB239
:10312800FB685A8542E07A6AB96BF86800F05CFC83
:103138000346002B01D001234CE0FB681B681A6989
:10314800FB685B6AD2B21A70FB685B6A5A1CFB6840
:103158005A62FB681B8D013B9AB2FB681A85FB68B3
:103168005B8D9BB2013B9AB2FB685A85FB681B6872
:103178005B6903F00403042B18D1FB681B681A6908
:10318800FB685B6AD2B21A70FB685B6A5A1CFB6800
:103198005A62FB681B8D013B9AB2FB681A85FB6873
:1031A8005B8D9BB2013B9AB2FB685A85FB681B8D0D
:1031B800002B7FF4C2AEFB68202283F83D20FB6819
:1031C800002283F83E20FB68002283F83C2000237D
:1031D80000E0022318462837BD4680BD04000100E0
:1031E80080B58AB002AFF8607A603B600B467B819D
:1031F800FFF79AF8F8610123BB61FB6893F83D304B
:10320800DBB2202B40F01181FB69009319230122C6
:103218008849F86800F090FA0346002B01D0022391
:1032280004E1FB6893F83C30012B01D10223FDE057
:10323800FB68012283F83C20FB681B681B6803F0CD
:103248000103012B07D0FB681B681A68FB681B6821
:1032580042F001021A60FB681B681A68FB681B6869
:1032680022F400621A60FB68242283F83D20FB6880
:1032780000221A64FB68704ADA62FB681B681A68E5
:10328800FB681B6842F480721A60FB6900933B6814
:1032980000224FF00111F86800F04EFA0346002BA7
:1032A8000DD0FB681B681B6803F48073B3F5807F3F
:1032B80003D1FB684FF400721A640323B6E07B89DC
:1032C800DBB21A46FB681B6802F0FE021A61FFF7C0
:1032D8002BF8F861FB681B685B6903F00203022B9B
:1032E8000CBF01230023DBB2FB75FB681B685B691D
:1032F80003F48063B3F5806F0CBF01230023DBB2B6
:10330800BB7525E0FFF710F80246FB69D31A3A6847
:103318009A4202D33B68002B03D1FB68A02283F8B2
:103328003D20FB681B685B6903F00203022B0CBF9E
:1033380001230023DBB2FB75FB681B685B6903F4A0
:103348008063B3F5806F0CBF01230023DBB2BB752C
:10335800FB6893F83D30DBB2A02B05D0FB7D002B3A
:1033680002D1BB7D002BCDD0FB68202283F83D2005
:10337800FB681B685B6903F00203022B29D1FB6819
:103388001B681A68FB681B6842F400721A60002305
:103398003B61FB681B685B693B61FB681B689B6959
:1033A8003B613B69FB690093192301222149F868B5
:1033B80000F0C2F90346002B01D0012336E0FB6878
:1033C800202283F83D20FB68002283F83C2000235C
:1033D8002CE0FB681B681A68FB681B6842F40072E3
:1033E8001A60FB681B686FF480625A61FB6900937E
:1033F800192301220F49F86800F09EF90346002BB3
:1034080001D0012312E0BB690133BB61BA697B6853
:103418009A42FFF432AFFB68202283F83D20FB6814
:10342800002283F83C20012300E0022318462037BD
:10343800BD4680BD020010000000FFFF80B588B0C7
:1034480002AFF860084611461A4603467B810B46D0
:103458003B811346FB80FB681B681A68FB681B6886
:1034680042F480721A607B6A00933B6A00224FF034
:103478000111F86800F060F90346002B0DD0FB68D5
:103488001B681B6803F48073B3F5807F03D1FB6866
:103498004FF400721A6403235FE07B89DBB21A469B
:1034A800FB681B6802F0FE021A617B6A3A6A2D49C2
:1034B800F86800F098F90346002B01D001234CE08E
:1034C80000237B61FB681B685B697B61FB681B6889
:1034D8009B697B617B697A6A396AF86800F002FA4D
:1034E8000346002B0DD0FB681B6C042B07D1FB682F
:1034F8001B681A68FB681B6842F400721A60012393
:103508002BE0FB88012B05D13B89DAB2FB681B68ED
:103518001A6121E03B891B0A9BB2DAB2FB681B687F
:103528001A617A6A396AF86800F0DCF90346002BF8
:103538000DD0FB681B6C042B07D1FB681B681A684D
:10354800FB681B6842F400721A60012305E03B899E
:10355800DAB2FB681B681A61002318461837BD46A3
:1035680080BD00BF0200010080B588B002AFF860DE
:10357800084611461A4603467B810B463B81134693
:10358800FB80FB681B681A68FB681B6842F4806252
:103598001A60FB681B681A68FB681B6842F4807233
:1035A8001A607B6A00933B6A00224FF00111F868A9
:1035B80000F0C2F80346002B0DD0FB681B681B689F
:1035C80003F48073B3F5807F03D1FB684FF4007276
:1035D8001A640323AAE07B89DBB21A46FB681B68DE
:1035E80002F0FE021A617B6A3A6A5249F86800F0F2
:1035F800FAF80346002B01D0012397E000237B61F2
:10360800FB681B685B697B61FB681B689B697B6166
:103618007B697A6A396AF86800F064F90346002B16
:103628000DD0FB681B6C042B07D1FB681B681A685C
:10363800FB681B6842F400721A60012376E0FB887D
:10364800012B05D13B89DAB2FB681B681A6121E0BE
:103658003B891B0A9BB2DAB2FB681B681A617A6A5B
:10366800396AF86800F03EF90346002B0DD0FB6874
:103678001B6C042B07D1FB681B681A68FB681B6866
:1036880042F400721A60012350E03B89DAB2FB6809
:103698001B681A617A6A396AF86800F023F90346E8
:1036A800002B0DD0FB681B6C042B07D1FB681B6833
:1036B8001A68FB681B6842F400721A60012335E03F
:1036C800FB681B681A68FB681B6842F480721A6002
:1036D8007B6A00933B6A00224FF00111F86800F002
:1036E8002BF80346002B0DD0FB681B681B6803F4FE
:1036F8008073B3F5807F03D1FB684FF400721A64BE
:10370800032313E07B89DBB243F00103DAB2FB68E1
:103718001B681A617B6A3A6A0649F86800F063F820
:103728000346002B01D0012300E000231846183778
:10373800BD4680BD0200010080B584B000AFF860CE
:10374800B9603B601346FB7125E03B68B3F1FF3F6E
:1037580021D0FEF7E9FD0246BB69D31A3A689A42BE
:1037680002D33B68002B16D1FB6800221A63FB6862
:10377800202283F83D20FB68002283F83E20FB6866
:103788001B6C43F02002FB681A64FB68002283F874
:103798003C20012323E0BB681B0CDBB2012B0DD1BD
:1037A800FB681B685B69DA43BB6813409BB2002B5C
:1037B8000CBF01230023DBB21A460CE0FB681B6830
:1037C8009B69DA43BB6813409BB2002B0CBF0123F3
:1037D8000023DBB21A46FB799A42B6D0002318467A
:1037E8001037BD4680BD80B584B000AFF860B960C1
:1037F8007A603B6051E0FB681B685B6903F4806397
:10380800B3F5806F23D1FB681B681A68FB681B68D7
:1038180042F400721A60FB681B686FF480625A6198
:10382800FB6800221A63FB68202283F83D20FB68AE
:10383800002283F83E20FB681B6C43F00402FB68FF
:103848001A64FB68002283F83C20012346E07B6869
:10385800B3F1FF3F21D0FEF767FD02463B68D31A5C
:103868007A689A4202D37B68002B16D1FB68002243
:103878001A63FB68202283F83D20FB68002283F846
:103888003E20FB681B6C43F02002FB681A64FB684F
:10389800002283F83C20012320E0BB681B0CDBB22C
:1038A800012B0CD1FB681B685B69DA43BB681340CA
:1038B8009BB2002B14BF01230023DBB20BE0FB6893
:1038C8001B689B69DA43BB6813409BB2002B14BF8B
:1038D80001230023DBB2002B8DD1002318461037BB
:1038E800BD4680BD80B584B000AFF860B9607A602D
:1038F8002DE0F86800F0CEF80346002B01D0012334
:103908002DE0BB68B3F1FF3F21D0FEF70DFD024665
:103918007B68D31ABA689A4202D3BB68002B16D1C7
:10392800FB6800221A63FB68202283F83D20FB68AD
:10393800002283F83E20FB681B6C43F02002FB68E2
:103948001A64FB68002283F83C20012307E0FB6827
:103958001B685B6903F08003802BCAD100231846DB
:103968001037BD4680BD80B584B000AFF860B9603F
:103978007A602DE0F86800F08DF80346002B01D03E
:1039880001232DE0BB68B3F1FF3F21D0FEF7CCFC4B
:1039980002467B68D31ABA689A4202D3BB68002BE6
:1039A80016D1FB6800221A63FB68202283F83D20A9
:1039B800FB68002283F83E20FB681B6C43F0200262
:1039C800FB681A64FB68002283F83C20012307E0A7
:1039D800FB681B685B6903F00403042BCAD100234E
:1039E80018461037BD4680BD80B584B000AFF8607A
:1039F800B9607A6042E0FB681B685B6903F01003FA
:103A0800102B19D1FB681B686FF010025A61FB6814
:103A180000221A63FB68202283F83D20FB680022FD
:103A280083F83E20FB681A6CFB681A64FB68002266
:103A380083F83C20012329E0FEF776FC02467B68E8
:103A4800D31ABA689A4202D3BB68002B16D1FB6816
:103A580000221A63FB68202283F83D20FB680022BD
:103A680083F83E20FB681B6C43F02002FB681A6455
:103A7800FB68002283F83C20012307E0FB681B68F1
:103A88005B6903F04003402BB5D10023184610377B
:103A9800BD4680BD80B483B000AF78607B681B688A
:103AA8005B6903F48063B3F5806F1BD17B681B6887
:103AB8006FF480625A617B6800221A637B68202257
:103AC80083F83D207B68002283F83E207B681B6CCE
:103AD80043F004027B681A647B68002283F83C2068
:103AE800012300E0002318460C37BD465DF8047B2F
:103AF8007047000080B586B000AF78607B68002B07
:103B080001D1012364E27B681B6803F00103002BE9
:103B180075D0A34B9B6803F00C03042B0CD0A04B6F
:103B28009B6803F00C03082B12D19D4B5B6803F4D0
:103B38008003B3F5800F0BD1994B1B6803F4003356
:103B4800002B5BD07B685B68002B57D101233FE2D9
:103B58007B685B68B3F5803F06D1914B1B68904A40
:103B680043F4803313601DE07B685B68B3F5A02FD6
:103B78000CD18B4B1B688A4A43F480231360884B13
:103B88001B68874A43F4803313600BE0844B1B683F
:103B9800834A23F480331360814B1B68804A23F4E3
:103BA800802313607B685B68002B13D0FEF7BCFB97
:103BB800386108E0FEF7B8FB02463B69D31A642B6C
:103BC80001D9032304E2764B1B6803F40033002B6E
:103BD800F0D014E0FEF7A8FB386108E0FEF7A4FB7C
:103BE80002463B69D31A642B01D90323F0E16C4BDD
:103BF8001B6803F40033002BF0D100E000BF7B68A2
:103C08001B6803F00203002B63D0654B9B6803F02D
:103C18000C03002B0BD0624B9B6803F00C03082BA2
:103C28001CD15F4B5B6803F48003002B16D15C4BFF
:103C38001B6803F00203002B05D07B68DB68012BAF
:103C480001D00123C4E1564B1B6823F0F8027B68BE
:103C58001B69DB00524913430B603AE07B68DB6861
:103C6800002B20D04F4B01221A60FEF75DFB386114
:103C780008E0FEF759FB02463B69D31A022B01D92B
:103C88000323A5E1464B1B6803F00203002BF0D089
:103C9800434B1B6823F0F8027B681B69DB00404933
:103CA80013430B6015E03F4B00221A60FEF73CFB04
:103CB800386108E0FEF738FB02463B69D31A022B4D
:103CC80001D9032384E1364B1B6803F00203002B60
:103CD800F0D17B681B6803F00803002B30D07B68A9
:103CE8005B69002B16D0304B01221A60FEF71CFBD3
:103CF800386108E0FEF718FB02463B69D31A022B2D
:103D080001D9032364E1264B5B6F03F00203002B08
:103D1800F0D015E0244B00221A60FEF705FB38614D
:103D280008E0FEF701FB02463B69D31A022B01D9D2
:103D380003234DE11A4B5B6F03F00203002BF0D114
:103D48007B681B6803F00403002B00F0A0800023AD
:103D5800FB75134B1B6C03F08053002B0FD1002312
:103D6800BB600F4B1B6C0E4A43F0805313640C4B23
:103D78001B6C03F08053BB60BB680123FB750B4BC6
:103D88001B6803F48073002B21D1084B1B68074A7A
:103D980043F480731360FEF7C7FA386111E000BF7F
:103DA8000038024000004742800E47420070004041
:103DB800FEF7BAFA02463B69D31A022B01D903234C
:103DC80006E1854B1B6803F48073002BF0D07B68F9
:103DD8009B68012B06D1814B1B6F804A43F001037E
:103DE80013671CE07B689B68052B0CD17B4B1B6F12
:103DF8007A4A43F004031367784B1B6F774A43F002
:103E0800010313670BE0754B1B6F744A23F0010322
:103E18001367724B1B6F714A23F0040313677B68A7
:103E28009B68002B15D0FEF77FFA38610AE0FEF791
:103E38007BFA02463B69D31A41F28832934201D990
:103E48000323C5E0654B1B6F03F00203002BEED084
:103E580014E0FEF769FA38610AE0FEF765FA0246EF
:103E68003B69D31A41F28832934201D90323AFE068
:103E78005A4B1B6F03F00203002BEED1FB7D012B85
:103E880005D1564B1B6C554A23F0805313647B684D
:103E98009B69002B00F09B80504B9B6803F00C0340
:103EA800082B5CD07B689B69022B41D14C4B0022CC
:103EB8001A60FEF739FA386108E0FEF735FA02466B
:103EC8003B69D31A022B01D9032381E0434B1B68BA
:103ED80003F00073002BF0D17B68DA697B681B6AFA
:103EE8001A437B685B6A9B011A437B689B6A5B0881
:103EF800013B1B041A437B68DB6A1B0637491343E3
:103F08004B60374B01221A60FEF70EFA386108E061
:103F1800FEF70AFA02463B69D31A022B01D903239A
:103F280056E02E4B1B6803F00073002BF0D04EE0D8
:103F38002B4B00221A60FEF7F7F9386108E0FEF70C
:103F4800F3F902463B69D31A022B01D903233FE058
:103F5800224B1B6803F00073002BF0D137E07B681D
:103F68009B69012B01D1012332E01C4B5B68FB608C
:103F78007B689B69012B28D0FB6803F480027B686F
:103F8800DB699A4221D1FB6803F03F027B681B6A18
:103F98009A421AD1FA6847F6C07313407A68526A8F
:103FA8009201934211D1FB6803F440327B689B6A0B
:103FB8005B08013B1B049A4207D1FB6803F070625F
:103FC8007B68DB6A1B069A4201D0012300E00023CC
:103FD80018461837BD4680BD0070004000380240C2
:103FE8006000474280B584B000AF786039607B6874
:103FF800002B01D10123CCE0684B1B6803F00703B9
:104008003A689A420CD9654B3A68D2B21A70634B37
:104018001B6803F007033A689A4201D00123B8E00D
:104028007B681B6803F00203002B20D07B681B68A9
:1040380003F00403002B05D0594B9B68584A43F4FE
:10404800E05393607B681B6803F00803002B05D0DE
:10405800534B9B68524A43F460439360504B9B68B0
:1040680023F0F0027B689B684D4913438B607B68A3
:104078001B6803F00103002B44D07B685B68012BAD
:1040880007D1474B1B6803F40033002B19D10123D8
:104098007FE07B685B68022B03D07B685B68032B3F
:1040A80007D13F4B1B6803F00073002B09D1012394
:1040B8006FE03B4B1B6803F00203002B01D1012387
:1040C80067E0374B9B6823F003027B685B683449E1
:1040D80013438B60FEF728F9F8600AE0FEF724F92D
:1040E8000246FB68D31A41F28832934201D903236E
:1040F8004FE02B4B9B6803F00C027B685B689B00CE
:104108009A42EBD1254B1B6803F007033A689A42A1
:104118000CD2224B3A68D2B21A70204B1B6803F0BB
:1041280007033A689A4201D0012332E07B681B6892
:1041380003F00403002B08D0194B9B6823F4E052CA
:104148007B68DB68164913438B607B681B6803F048
:104158000803002B09D0124B9B6823F460427B684C
:104168001B69DB000E4913438B6000F021F80246FF
:104178000B4B9B681B0903F00F030A49CB5C22FA1F
:1041880003F3094A1360094B1B681846FEF788F8C1
:10419800002318461037BD4680BD00BF003C0240D2
:1041A800003802405C8A0008080000200C0000204B
:1041B8002DE9B04384B000AF00237B600023FB608F
:1041C80000233B600023BB60674B9B6803F00C0334
:1041D800082B0DD0082B00F2BD80002B02D0042B39
:1041E80003D0B7E0614BBB60B7E0614BBB60B4E0A4
:1041F8005D4B5B6803F03F037B605B4B5B6803F4DC
:104208008003002B4DD0584B5B689B091A464FF032
:10421800000340F2FF104FF0000102EA000803EA31
:104228000109404649464FF000024FF000034B0198
:1042380043EAD063420110461946B0EB080061EB2F
:1042480009014FF000024FF000038B0143EA90632D
:104258008201121A63EB01034FF000004FF00001D6
:10426800D90041EA5271D00002460B4612EB08020F
:1042780043EB09034FF000004FF00001590241EAF7
:10428800D251500202460B46104619467B681A4620
:104298004FF00003FBF79CFF02460B461346FB60FA
:1042A8004AE0314B5B689B091A464FF0000340F225
:1042B800FF104FF0000102EA000403EA010520465E
:1042C80029464FF000024FF000034B0143EAD06348
:1042D800420110461946001B61EB05014FF0000230
:1042E8004FF000038B0143EA90638201121A63EBDB
:1042F80001034FF000004FF00001D90041EA52716C
:10430800D00002460B46121945EB03034FF000009C
:104318004FF00001990241EA9251900202460B4681
:10432800104619467B681A464FF00003FBF750FF0A
:1043380002460B461346FB600B4B5B681B0C03F0F5
:10434800030301335B003B60FA683B68B2FBF3F39D
:10435800BB6002E0054BBB6000BFBB681846103766
:10436800BD46BDE8B08300BF003802400024F40019
:1043780000127A0080B400AF034B1B681846BD4694
:104388005DF8047B704700BF0800002080B500AFCF
:10439800FFF7F0FF0246054B9B689B0A03F00703F3
:1043A8000349CB5C22FA03F3184680BD003802406B
:1043B8006C8A000880B582B000AF78607B68002BFB
:1043C80001D101237BE07B685B6A002B08D17B6805
:1043D8005B68B3F5827F09D07B680022DA6105E06B
:1043E8007B6800221A617B6800225A617B68002280
:1043F8009A627B6893F85130DBB2002B06D17B6858
:10440800002283F850207868FDF798FD7B68022227
:1044180083F851207B681B681A687B681B6822F048
:1044280040021A607B685B6803F482727B689B6851
:1044380003F404431A437B68DB6803F400631A43FC
:104448007B681B6903F002031A437B685B6903F00E
:1044580001031A437B689B6903F400731A437B6862
:10446800DB6903F038031A437B681B6A03F0800397
:1044780042EA03017B689B6A03F400527B681B686D
:104488000A431A607B689B691B0C03F004017B6874
:104498005B6A03F010027B681B680A435A607B68FA
:1044A8001B68DA697B681B6822F40062DA617B6842
:1044B80000225A657B68012283F8512000231846A0
:1044C8000837BD4680BD80B588B000AFF860B960D8
:1044D8003B601346FB800023FB77FB6893F8503062
:1044E800012B01D1022326E1FB68012283F8502029
:1044F800FDF71AFFB861FB88FB82FB6893F851301F
:10450800DBB2012B02D00223FB770BE1BB68002B47
:1045180002D0FB88002B02D10123FB7702E1FB6864
:10452800032283F85120FB6800225A65FB68BA68A9
:104538001A63FB68FA889A86FB68FA88DA86FB6849
:1045480000229A63FB6800229A87FB680022DA87B8
:10455800FB6800225A64FB6800221A64FB689B68A7
:10456800B3F5004F0FD1FB681B681A68FB681B681E
:1045780022F040021A60FB681B681A68FB681B6817
:1045880042F480421A60FB681B681B6803F0400312
:10459800402B07D0FB681B681A68FB681B6842F051
:1045A80040021A60FB68DB68B3F5006F4BD1FB680B
:1045B8005B68002B02D0FB8A012B3ED1FB681B6B8A
:1045C8001A88FB681B68DA60FB681B6B9A1CFB681F
:1045D8001A63FB68DB8E9BB2013B9AB2FB68DA86F2
:1045E8002BE0FB681B689B6803F00203022B12D1C7
:1045F800FB681B6B1A88FB681B68DA60FB681B6B1F
:104608009A1CFB681A63FB68DB8E9BB2013B9AB26B
:10461800FB68DA8611E0FDF787FE0246BB69D31A0C
:104628003A689A4203D83B68B3F1FF3F02D13B682E
:10463800002B02D10323FB7774E0FB68DB8E9BB26F
:10464800002BCED14CE0FB685B68002B02D0FB8AC4
:10465800012B40D1FB681A6BFB681B680C3312787E
:104668001A70FB681B6B5A1CFB681A63FB68DB8EAD
:104678009BB2013B9AB2FB68DA862CE0FB681B68A8
:104688009B6803F00203022B13D1FB681A6BFB68CB
:104698001B680C3312781A70FB681B6B5A1CFB687A
:1046A8001A63FB68DB8E9BB2013B9AB2FB68DA8621
:1046B80011E0FDF739FE0246BB69D31A3A689A42FF
:1046C80003D83B68B3F1FF3F02D13B68002B02D10E
:1046D8000323FB7726E0FB68DB8E9BB2002BCDD152
:1046E800BA693968F86800F0CBFB0346002B02D0A2
:1046F800FB6820225A65FB689B68002B0AD10023BF
:104708003B61FB681B68DB683B61FB681B689B6857
:104718003B613B69FB685B6D002B02D00123FB7793
:1047280000E000BFFB68012283F85120FB680022EB
:1047380083F85020FB7F18462037BD4680BD80B5E2
:1047480088B002AFF860B9603B601346FB80002375
:10475800FB75FB685B68B3F5827F12D1FB689B68C9
:10476800002B0ED1FB68042283F85120FA883B689D
:1047780000931346BA68B968F86800F0F1F8034680
:10478800EAE0FB6893F85030012B01D10223E3E003
:10479800FB68012283F85020FDF7C6FD3861FB68ED
:1047A80093F85130DBB2012B02D00223FB75CAE02B
:1047B800BB68002B02D0FB88002B02D10123FB75BC
:1047C800C1E0FB68042283F85120FB6800225A6587
:1047D800FB68BA689A63FB68FA889A87FB68FA8864
:1047E800DA87FB6800221A63FB6800229A86FB6856
:1047F8000022DA86FB6800221A64FB6800225A64E9
:10480800FB689B68B3F5004F0FD1FB681B681A68FB
:10481800FB681B6822F040021A60FB681B681A6874
:10482800FB681B6822F480421A60FB681B681B68DF
:1048380003F04003402B07D0FB681B681A68FB682D
:104848001B6842F040021A60FB68DB68002B62D1EB
:104858002EE0FB681B689B6803F00103012B15D150
:10486800FB681B6803F10C02FB689B6B1278D2B2E1
:104878001A70FB689B6B5A1CFB689A63FB68DB8F9A
:104888009BB2013B9AB2FB68DA8711E0FDF74CFD59
:1048980002463B69D31A3A689A4203D83B68B3F197
:1048A800FF3F02D13B68002B02D10323FB754AE08E
:1048B800FB68DB8F9BB2002BCBD131E0FB681B6818
:1048C8009B6803F00103012B13D1FB681B68DA68AE
:1048D800FB689B6B92B21A80FB689B6B9A1CFB6807
:1048E8009A63FB68DB8F9BB2013B9AB2FB68DA875D
:1048F80011E0FDF719FD02463B69D31A3A689A425E
:1049080003D83B68B3F1FF3F02D13B68002B02D1CB
:104918000323FB7517E0FB68DB8F9BB2002BCDD11F
:104928003A693968F86800F045FA0346002B02D066
:10493800FB6820225A65FB685B6D002B02D00123BF
:10494800FB7500E000BFFB68012283F85120FB687B
:10495800002283F85020FB7D18461837BD4680BDDD
:1049680080B58CB000AFF860B9607A607B800123B5
:10497800FB62002387F82B30FB6893F85030012B3B
:1049880001D102238AE1FB68012283F85020FDF758
:10499800CBFC7862FB6893F8513087F82330FB68CA
:1049A8005B68FB617B887B8397F82330012B0FD0F2
:1049B800FB69B3F5827F07D1FB689B68002B03D1A5
:1049C80097F82330042B03D0022387F82B305BE1C0
:1049D800BB68002B05D07B68002B02D07B88002B9E
:1049E80003D1012387F82B304EE1FB6893F851304F
:1049F800DBB2042B03D0FB68052283F85120FB6847
:104A080000225A65FB687A689A63FB687A88DA87B5
:104A1800FB687A889A87FB68BA681A63FB687A88A1
:104A2800DA86FB687A889A86FB6800221A64FB6833
:104A380000225A64FB681B681B6803F04003402B84
:104A480007D0FB681B681A68FB681B6842F04002C5
:104A58001A60FB68DB68B3F5006F78D1FB685B68A8
:104A6800002B02D07B8B012B66D1FB681B6B1A884D
:104A7800FB681B68DA60FB681B6B9A1CFB681A638F
:104A8800FB68DB8E9BB2013B9AB2FB68DA8653E087
:104A9800FB681B689B6803F00203022B1BD1FB68B1
:104AA800DB8E9BB2002B16D0FB6A012B13D1FB685F
:104AB8001B6B1A88FB681B68DA60FB681B6B9A1C07
:104AC800FB681A63FB68DB8E9BB2013B9AB2FB68FA
:104AD800DA860023FB62FB681B689B6803F001030E
:104AE800012B19D1FB68DB8F9BB2002B14D0FB681C
:104AF8001B68DA68FB689B6B92B21A80FB689B6B39
:104B08009A1CFB689A63FB68DB8F9BB2013B9AB2E5
:104B1800FB68DA870123FB62FDF706FC02467B6A25
:104B2800D31ABA6B9A4207D8BB6BB3F1FF3F03D0D5
:104B3800032387F82B30A7E0FB68DB8E9BB2002BA2
:104B4800A6D1FB68DB8F9BB2002BA1D17CE0FB6870
:104B58005B68002B02D07B8B012B6BD1FB681A6B37
:104B6800FB681B680C3312781A70FB681B6B5A1CA5
:104B7800FB681A63FB68DB8E9BB2013B9AB2FB6849
:104B8800DA8657E0FB681B689B6803F00203022B78
:104B98001CD1FB68DB8E9BB2002B17D0FB6A012B64
:104BA80014D1FB681A6BFB681B680C3312781A70F7
:104BB800FB681B6B5A1CFB681A63FB68DB8E9BB295
:104BC800013B9AB2FB68DA860023FB62FB681B682C
:104BD8009B6803F00103012B19D1FB68DB8F9BB2A3
:104BE800002B14D0FB681B68DA68FB689B6BD2B299
:104BF8001A70FB689B6B5A1CFB689A63FB68DB8F17
:104C08009BB2013B9AB2FB68DA870123FB62FDF78E
:104C18008BFB02467B6AD31ABA6B9A4203D8BB6BEA
:104C2800B3F1FF3F02D1BB6B002B03D1032387F8FD
:104C38002B3029E0FB68DB8E9BB2002BA2D1FB68EE
:104C4800DB8F9BB2002B9DD17A6AB96BF86800F0B4
:104C580017F90346002B06D0012387F82B30FB6891
:104C680020225A6510E0FB689B68002B0BD10023BB
:104C78007B61FB681B68DB687B61FB681B689B6862
:104C88007B617B6900E000BFFB68012283F851204B
:104C9800FB68002283F8502097F82B3018463037ED
:104CA800BD4680BD80B588B000AFF860B9603B6094
:104CB8001346FB71FDF738FB0246BB6A9B1A3A683C
:104CC8001344FB61FDF730FBB861394B1B685B018E
:104CD8001B0DFA6902FB03F37B6154E03B68B3F1F7
:104CE800FF3F50D0FDF720FB0246BB69D31AFA6993
:104CF8009A4202D9FB69002B3DD1FB681B685A68B0
:104D0800FB681B6822F0E0025A60FB685B68B3F539
:104D1800827F11D1FB689B68B3F5004F04D0FB6814
:104D28009B68B3F5806F07D1FB681B681A68FB683E
:104D38001B6822F040021A60FB689B6AB3F5005FAB
:104D48000FD1FB681B681A68FB681B6822F40052C5
:104D58001A60FB681B681A68FB681B6842F40052FB
:104D68001A60FB68012283F85120FB68002283F84F
:104D78005020032317E07B69002B01D10023FB613E
:104D88007B69013B7B61FB681B689A68BB681340C1
:104D9800BA689A420CBF01230023DBB21A46FB799A
:104DA8009A429BD1002318462037BD4680BD00BFDC
:104DB8000800002080B586B002AFF860B9607A605C
:104DC800FB685B68B3F5827F11D1FB689B68B3F51C
:104DD800004F04D0FB689B68B3F5806F07D1FB6870
:104DE8001B681A68FB681B6822F040021A60FB689F
:104DF8005B68B3F5827F2AD1FB689B68B3F5806F47
:104E080012D07B680093BB6800228021F868FFF706
:104E180049FF0346002B2DD0FB685B6D43F0200251
:104E2800FB685A65032326E07B680093BB68002271
:104E38000121F868FFF736FF0346002B1AD0FB68FC
:104E48005B6D43F02002FB685A65032313E07B681F
:104E58000093BB6800220121F868FFF723FF03468F
:104E6800002B07D0FB685B6D43F02002FB685A6596
:104E7800032300E0002318461037BD4680BD00001C
:104E880080B588B002AFF860B9607A601B4B1B68C8
:104E98001B4AA2FB03235B0D4FF47A7202FB03F358
:104EA8007B61FB685B68B3F5827F12D17B680093F6
:104EB800BB6800228021F868FFF7F4FE0346002B48
:104EC80016D0FB685B6D43F02002FB685A6503232C
:104ED8000FE07B69002B0AD07B69013B7B61FB6893
:104EE8001B689B6803F08003802BF2D000E000BFB2
:104EF800002318461837BD4680BD00BF08000020B3
:104F0800819F5E1680B584B000AFF860B9607A60A2
:104F1800FB68002B01D1012334E0FB6893F849308A
:104F2800DBB2002B06D1FB68002283F84820F86822
:104F3800FBF7D2FCFB681A68FB6808331946104671
:104F480000F0A6FCFB681868FB689B681A46B968FD
:104F580000F0F0FCFB685868FB689A68FB681B6BFC
:104F6800796800F025FDFB681B68FA68926853F8B9
:104F78002210FB681B68FA68926841F0010143F847
:104F88002210002318461037BD4680BD80B582B078
:104F980000AF78607B68002B01D1012341E07B687A
:104FA80093F83D30DBB2002B06D17B68002283F8F2
:104FB8003C207868FDF7C4F87B68022283F83D201E
:104FC8007B681A687B6804331946104600F096FA25
:104FD8007B68012283F846207B68012283F83E2003
:104FE8007B68012283F83F207B68012283F84020F8
:104FF8007B68012283F841207B68012283F84220E4
:105008007B68012283F843207B68012283F84420CF
:105018007B68012283F845207B68012283F83D20C4
:10502800002318460837BD4680BD000080B485B00F
:1050380000AF78607B6893F83D30DBB2012B01D07C
:1050480001234EE07B68022283F83D207B681B68C1
:10505800DA687B681B6842F00102DA607B681B68CB
:10506800234A934222D07B681B68B3F1804F1DD03E
:105078007B681B681F4A934218D07B681B681E4ACE
:10508800934213D07B681B681C4A93420ED07B68FE
:105098001B681B4A934209D07B681B68194A9342D4
:1050A80004D07B681B68184A934211D17B681B683F
:1050B8009B6803F00703FB60FB68062B10D07B6836
:1050C8001B681A687B681B6842F001021A6007E0D7
:1050D8007B681B681A687B681B6842F001021A60CB
:1050E800002318461437BD465DF8047B704700BF9F
:1050F800000001400004004000080040000C00408F
:1051080000040140004001400018004080B582B012
:1051180000AF78607B681B681B6903F00203022BF1
:1051280022D17B681B68DB6803F00203022B1BD1CA
:105138007B681B686FF002021A617B6801221A778C
:105148007B681B689B6903F00303002B03D0786816
:1051580000F0B5F905E0786800F0A7F9786800F084
:10516800B8F97B6800221A777B681B681B6903F013
:105178000403042B22D17B681B68DB6803F004035B
:10518800042B1BD17B681B686FF004021A617B68D3
:1051980002221A777B681B689B6903F44073002B13
:1051A80003D0786800F08BF905E0786800F07DF9A5
:1051B800786800F08EF97B6800221A777B681B6894
:1051C8001B6903F00803082B22D17B681B68DB6886
:1051D80003F00803082B1BD17B681B686FF00802DB
:1051E8001A617B6804221A777B681B68DB6903F005
:1051F8000303002B03D0786800F061F905E07868B4
:1052080000F053F9786800F064F97B6800221A7797
:105218007B681B681B6903F01003102B22D17B6885
:105228001B68DB6803F01003102B1BD17B681B681D
:105238006FF010021A617B6808221A777B681B6876
:10524800DB6903F44073002B03D0786800F037F96A
:1052580005E0786800F029F9786800F03AF97B6889
:1052680000221A777B681B681B6903F00103012B76
:105278000ED17B681B68DB6803F00103012B07D1A3
:105288007B681B686FF001021A617868FCF7F6FD0D
:105298007B681B681B6903F08003802B0ED17B6839
:1052A8001B68DB6803F08003802B07D17B681B68D1
:1052B8006FF080021A61786800F0E0FA7B681B687A
:1052C8001B6903F04003402B0ED17B681B68DB6829
:1052D80003F04003402B07D17B681B686FF0400246
:1052E8001A61786800F0FFF87B681B681B6903F097
:1052F8002003202B0ED17B681B68DB6803F020039A
:10530800202B07D17B681B686FF020021A61786830
:1053180000F0AAFA00BF0837BD4680BD80B584B04A
:1053280000AF786039600023FB737B6893F83C30EA
:10533800012B01D10223B4E07B68012283F83C20D1
:105348007B68022283F83D207B681B689B68BB60F2
:10535800BB6823F07703BB60BB6823F47F43BB6063
:105368007B681B68BA689A603B681B68B3F5005F86
:105378003ED0B3F5005F00F28780B3F5805F00F0A0
:105388008680B3F5805F7FD8702B1AD0702B7BD8BE
:10539800602B50D0602B77D8502B3CD0502B73D833
:1053A800402B58D0402B6FD8302B64D0302B6BD883
:1053B800202B60D0202B67D8002B5CD0102B5AD024
:1053C80062E07B6818683B6899683B685A683B6884
:1053D800DB6800F0ADF97B681B689B68BB60BB6845
:1053E80043F07703BB607B681B68BA689A604FE03C
:1053F8007B6818683B6899683B685A683B68DB6853
:1054080000F096F97B681B689A687B681B6842F411
:1054180080429A603CE07B6818683B6859683B6842
:10542800DB681A4600F00AF97B681B6850211846A9
:1054380000F063F92CE07B6818683B6859683B68A2
:10544800DB681A4600F029F97B681B68602118465A
:1054580000F053F91CE07B6818683B6859683B68A2
:10546800DB681A4600F0EAF87B681B68402118469A
:1054780000F043F90CE07B681A683B681B68194622
:10548800104600F03AF903E00123FB7300E000BF87
:105498007B68012283F83D207B68002283F83C204A
:1054A800FB7B18461037BD4680BD80B483B000AF83
:1054B800786000BF0C37BD465DF8047B704780B448
:1054C80083B000AF786000BF0C37BD465DF8047B41
:1054D800704780B483B000AF786000BF0C37BD461A
:1054E8005DF8047B704780B483B000AF786000BF7C
:1054F8000C37BD465DF8047B7047000080B485B06A
:1055080000AF786039607B681B68FB607B68404A45
:10551800934213D07B68B3F1804F0FD07B683D4A2C
:1055280093420BD07B683C4A934207D07B683B4A46
:10553800934203D07B683A4A934208D1FB6823F030
:105548007003FB603B685B68FA681343FB607B6829
:105558002F4A93422BD07B68B3F1804F27D07B68CA
:105568002C4A934223D07B682B4A93421FD07B68F6
:105578002A4A93421BD07B68294A934217D07B68FA
:10558800284A934213D07B68274A93420FD07B68FE
:10559800264A93420BD07B68254A934207D07B6802
:1055A800244A934203D07B68234A934208D1FB687C
:1055B80023F44073FB603B68DB68FA681343FB60C5
:1055C800FB6823F080023B685B691343FB607B68E0
:1055D800FA681A603B689A687B68DA623B681A68FE
:1055E8007B689A627B680A4A934203D07B680C4ABC
:1055F800934203D13B681A697B681A637B6801226E
:105608005A6100BF1437BD465DF8047B704700BF80
:10561800000001400004004000080040000C004069
:10562800000401400040014000440140004801409E
:1056380000180040001C00400020004080B487B0E3
:1056480000AFF860B9607A60FB681B6A7B61FB6831
:105658001B6A23F00102FB681A62FB689B693B61C5
:105668003B6923F0F0033B617B681B013A691343F4
:105678003B617B6923F00A037B617A69BB6813434A
:105688007B61FB683A699A61FB687A691A6200BFB4
:105698001C37BD465DF8047B704780B487B000AF07
:1056A800F860B9607A60FB681B6A23F01002FB6837
:1056B8001A62FB689B697B61FB681B6A3B617B69BB
:1056C80023F470437B617B681B037A6913437B6116
:1056D8003B6923F0A0033B61BB681B013A69134394
:1056E8003B61FB687A699A61FB683A691A6200BF94
:1056F8001C37BD465DF8047B704780B485B000AFA9
:10570800786039607B689B68FB60FB6823F07003F6
:10571800FB603A68FB68134343F00703FB607B6850
:10572800FA689A6000BF1437BD465DF8047B70477D
:1057380080B487B000AFF860B9607A603B60FB68FE
:105748009B687B617B6923F47F437B613B681A021A
:105758007B681A43BB6813437A6913437B61FB6810
:105768007A699A6000BF1C37BD465DF8047B7047B4
:1057780080B485B000AF786039607B6893F83C30BE
:10578800012B01D102235AE07B68012283F83C20D7
:105798007B68022283F83D207B681B685B68FB609E
:1057A8007B681B689B68BB60FB6823F07003FB6029
:1057B8003B681B68FA681343FB607B681B68FA68E0
:1057C8005A607B681B68214A934222D07B681B6819
:1057D800B3F1804F1DD07B681B681D4A934218D0D7
:1057E8007B681B681B4A934213D07B681B681A4A64
:1057F80093420ED07B681B68184A934209D07B6895
:105808001B68174A934204D07B681B68154A934269
:105818000CD1BB6823F08003BB603B685B68BA6847
:105828001343BB607B681B68BA689A607B68012277
:1058380083F83D207B68002283F83C20002318462B
:105848001437BD465DF8047B704700BF0000014077
:105858000004004000080040000C00400004014023
:10586800004001400018004080B483B000AF786069
:1058780000BF0C37BD465DF8047B704780B483B029
:1058880000AF786000BF0C37BD465DF8047B7047F9
:1058980080B485B000AF786039600023FB603B6856
:1058A8001A687B6853F82230FB60FA68204B134073
:1058B800FB603B685A683B689B681A433B68DB6837
:1058C8001A433B681B691A433B685B691A433B6888
:1058D8009B691A433B68DB691A433B681B6A1A4396
:1058E8003B685B6A1A433B689B6A1A433B68DB6AFE
:1058F8001A433B68DB6B1A433B681B6B1343FA681C
:105908001343FB603B689B68082B03D1FB6843F09B
:105918004003FB603B681A687B68F96843F822100B
:10592800002318461437BD465DF8047B704700BF56
:105938008000F0FF80B487B000AFF860B9607A608B
:1059480000237B617B685A1CFB6853F822307B611B
:105958007B6903F040437B61BB681A68BB685B687E
:105968001B011A43BB689B681B021A43BB68DB68B0
:105978001B041A43BB681B69013B1B051A43BB6820
:105988005B69023B1B061A43BB689B6913437A6930
:1059980013437B617B685A1CFB68796943F82210C2
:1059A800002318461C37BD465DF8047B704700008D
:1059B80080B487B000AFF860B9607A603B600023BC
:1059C8007B613B68B3F5804F22D1FB687A6853F856
:1059D80022307B617A69154B13407B61BB681A687A
:1059E800BB685B681B011A43BB689B681B021A43B0
:1059F800BB68DB681B041A43BB689B6913437A695D
:105A080013437B61FB687A68796943F8221005E0E3
:105A1800FB687A686FF0704143F82210002318463B
:105A28001C37BD465DF8047B704700BF0000F0CF0F
:105A380070B50D4D0D4C641BA4100026A64209D16B
:105A48000B4D0C4C00F020F8641BA4100026A64255
:105A580005D170BD55F8043B98470136EEE755F877
:105A6800043B98470136F2E77C8A00087C8A0008E4
:105A78007C8A0008808A000802440346934200D1C9
:105A8800704703F8011BF9E7F8B500BFF8BC08BC7C
:105A98009E467047F8B500BFF8BC08BC9E467047E4
:105AA800444953504C4159204D4F44450000000093
:105AB80041444A555354204D414E55414C4C592070
:105AC8004D6F646500000000414C41524D204D6F00
